:020000040800F2
:10000000000001205D120008A9110008AB110008D2
:10001000AD110008AF110008B11100080000000088
:10002000000000000000000000000000B311000804
:10003000B511000800000000B7110008B911000850
:10004000AD120008AD120008AD120008AD12000894
:10005000AD120008AD120008AD120008AD12000884
:10006000AD120008AD120008AD120008AD12000874
:10007000AD120008AD120008AD120008AD12000864
:10008000AD120008AD120008AD120008AD12000854
:1000900000000000AD120008AD120008AD1200080B
:1000A000BD110008AD120008AD120008AD12000825
:1000B000AD120008AD120008AD120008AD12000824
:1000C000AD120008AD120008AD120008AD12000814
:1000D000AD120008AD120008AD120008AD12000804
:1000E000AD120008AD120008AD120008AD120008F4
:1000F000AD1200080000000000000000AD12000872
:10010000AD120008AD120008AD120008AD120008D3
:10011000AD120008AD120008AD120008AD120008C3
:10012000AD120008AD120008AD120008AD120008B3
:08013000AD120008AD12000839
:1001400010B5054C237833B9044B13B10448AFF311
:1001500000800123237010BD70000020000000000B
:10016000C43F000808B5034B1BB103490348AFF374
:10017000008008BD0000000074000020C43F00089B
:1001800001F0FF01102A2BDB10F0070F08D010F848
:10019000013B013A8B422DD010F0070F42B3F6D14C
:1001A000F0B441EA012141EA014122F007047FF065
:1001B00000070023F0E80256083C85EA010586EABC
:1001C000010685FA47F5A3FA87F586FA47F6A5FAF8
:1001D00087F68EB9EED1F0BC01F0FF0102F0070204
:1001E00032B110F8013B013A83EA010313B1F8D1AF
:1001F0000020704701387047002D06BF3546033890
:10020000073815F0010F07D1013015F4807F02BFC8
:10021000013015F4C03F0130F0BC0138704700BF19
:1002200053B94AB9002908BF00281CBF4FF0FF315D
:100230004FF0FF3000F06AB9ADF1080C6DE904CE63
:1002400000F006F8DDF804E0DDE9022304B07047B1
:100250002DE9F047089D0C46002B4ED194468C4565
:100260008646B2FA82F262D94AB1C2F120039140C5
:1002700020FA03F30CFA02FC194300FA02FE4FEADB
:100280001C471FFA8CF6B1FBF7F44FEA1E4307FB3D
:10029000141143EA014304FB06F199420AD91CEB0D
:1002A000030304F1FF3080F01281994240F20F8184
:1002B000023C6344591A1FFA8EF3B1FBF7F007FBB7
:1002C000101143EA014300FB06F69E420AD91CEBDB
:1002D000030300F1FF3180F0FC809E4240F2F98080
:1002E000634402389B1B40EA044000211DB1D34007
:1002F0000022C5E90032BDE8F0878B4205D90DB177
:10030000C5E9000100210846F5E7B3FA83F10029A9
:1003100046D1A34202D39042C0F0F080861A64EB2B
:1003200003030120002DE6D0C5E90063E3E7002ABE
:1003300040F09080A1EB0C044FEA1C481FFA8CF7A8
:100340000121B4FBF8F64FEA1E4308FB164443EACA
:10035000044307FB06F0984208D91CEB030306F19F
:10036000FF3402D2984200F2CD8026461C1A1FFAB2
:100370008EF3B4FBF8F008FB104443EA044300FB9F
:1003800007F79F4208D91CEB030300F1FF3402D2A8
:100390009F4200F2B0802046DB1B40EA0640A5E702
:1003A000C1F120068B4022FA06F71F4320FA06FC13
:1003B00004FA01F343EA0C03F44000FA01F8380CA4
:1003C0004FEA1349B4FBF0FE1FFA87FC00FB1E4402
:1003D00049EA04440EFB0CF9A14502FA01F20AD9DC
:1003E0003C190EF1FF3A80F08480A14540F28180F3
:1003F000AEF1020E3C44A4EB09041FFA83F9B4FBEE
:10040000F0F300FB134449EA044403FB0CFCA4454D
:1004100007D93C1903F1FF3067D2A44565D9023BE7
:100420003C4443EA0E40A0FB0293A4EB0C049C4224
:10043000CE469C4651D34ED055B1B8EB0E0364EB7B
:100440000C0404FA06F6CB401E43CC40C5E9006418
:10045000002150E7C2F1200320FA03F10CFA02FC5C
:1004600024FA03F394400C434FEA1C4800FA02FEBE
:100470001FFA8CF7B3FBF8F008FB1031230C43EAAA
:10048000014300FB07F1994208D91CEB030300F17B
:10049000FF362CD299422AD9023863445B1AA4B29F
:1004A000B3FBF8F108FB113344EA034401FB07F303
:1004B000A34208D91CEB040401F1FF3613D2A34276
:1004C00011D902396444E41A41EA004139E704468B
:1004D000F0E6084606E7C845AED2B9EB020E63EB7C
:1004E000070C0138A8E73146EDE7034699E73046A7
:1004F000D4E7D6467FE7634402384DE706462346F5
:1005000008460FE7023E634430E700BF704700BF74
:100510002DE9F04F1D1E1646364B374A87B08246EE
:10052000884614BF9146994601F072F8044618B106
:10053000324802F0A7FE59E0B6B1002D14BF1622D2
:100540004B224FF00201CDE9021214BF35233423B0
:1005500001A902A8049301F0EDF8044608B1284867
:10056000E7E7284802F08EFEDFF89CB0002422E086
:100570000026A8EB0407082F4FF0FF3228BF0827FA
:100580004FF0FF33CDE902230AEB04013A4602A8FB
:1005900002F0D3FFBDB9DBF80010DDE902234944C6
:1005A000012001F081F898B93C4425B9DBF800300E
:1005B0003B44CBF800304445DAD301F03BF8044625
:1005C000A0B11248B5E7DDE9022309EB0401E7E732
:1005D00001360F48B6B202F055FE0A2EC9D10D48B9
:1005E00002F050FE0C4802F04DFE0124204607B0F8
:1005F000BDE8F08F0058020800B00008E83F00088E
:10060000044000081E4000089400002076400008C6
:1006100035400008484000086340000813B5044610
:100620002368DB699B0601D402B010BD00230122C0
:100630000DF10701204602F0A7FBF1E71FB5104AB4
:1006400001920023BB22009369468DF808008DF8C3
:100650000D208DF8000001220A48CDF8093000F085
:1006600074FF094CCDF809002046FFF7D7FF4FF083
:10067000FF330A2201A9204602F034FB04B010BD6A
:10068000AA030100CC050020380500202DE9F04127
:10069000804688B0002843D000F0BAFF044630B14D
:1006A000204802F0EFFD204608B0BDE8F0810222AC
:1006B0001523CDE9052301A9012305A8079301F01E
:1006C00039F8044608B11848EBE705464FF0FF3605
:1006D0004FF0FF37C5F11A02082A28BF082208EB9D
:1006E000050102A8CDE9026702F027FF05F10061CC
:1006F000DDE9022301F52841012000F0D5FF044681
:1007000020B10A4802F0BEFD0948CAE70835202D8D
:10071000E0D100F08FFF04460028C4D00548C0E7B0
:100720000124C0E790400008B0400008D140000814
:10073000F2400008124100082DE9F04FA94FDFF800
:10074000A882DFF8A8A2AA4EAA48AB4D00233B60BE
:10075000C8F80030CAF800308BB00123337002F0C3
:1007600091FD40F209420021A34802F06BFE31786E
:10077000A24802F017FDA049A14842F210730122DD
:1007800002F002FB002851D12B78AA2B4ED19D49B3
:100790009B4842F21073012202F0F6FA002845D17C
:1007A0009949974842F21073022202F0EDFA0028AC
:1007B0003CD16B88DFF848B2009303F104091FFABB
:1007C00089F904244C4505EB040142F2107325D14C
:1007D0008B480191042202F0D7FA019930BBD1F87D
:1007E00000908748211D1FFA81FB42F210730122FD
:1007F00015FA81F102F0C8FAC0B915F80B30BB2B1D
:1008000014D18249009A824800F09FFE814501463A
:100810000ED080484A4602F0C5FC07E00122584647
:1008200002F0B2FA0134A4B20028CBD07A485DE0DD
:10083000621D92B240F209418A4201D97748EAE743
:10084000002AF3D06B781BB92A79022A00F0908035
:100850003278042A00F2C380DFE802F003071B2786
:100860006A006F4802F00EFD07E02A7913437FD13A
:100870006C4802F007FD022333706B4802F002FD62
:100880000020FFF7DBFE3378002B7FF46AAF0220F5
:1008900075E0022B6CD169683960AA686348CAF8B0
:1008A000002002F07FFC0323E6E7012B6C883DD19A
:1008B000D8F80030B3BB5E4B1B6803AA03F11809DC
:1008C0009646186859689446ACE8030008334B45CF
:1008D0006246F6D11B88ACF800304FF00109704633
:1008E0008DF81090FFF7D2FE18B1524802F0CAFC02
:1008F0003EE04A46454800232146FFF709FE98B9E5
:100900003A68D8F800104C48920A890A02F04AFC6A
:10091000D8F800203B689A42AFD3484802F0B2FCB6
:100920000423A9E70022E5E74548DFE74548DDE77E
:10093000002B52D12B79012B4DD1434802F0A2FC60
:10094000424802F09FFC3A684149314800F0FDFD01
:10095000DAF80020044601463E4802F023FCDAF8AB
:1009600000904C450ED03C484A46214602F01AFC05
:100970003A4802F087FC0120FFF760FE01200BB02F
:10098000BDE8F08F364802F07DFC294B1B6803ACB4
:1009900003F1180E224618685968A446ACE8030013
:1009A000083373456446F6D11B88ACF800303B68C9
:1009B000CDF812302B4B039310464FF48073CDF8D3
:1009C0001690ADF81030FFF761FE10B93070264870
:1009D00048E726488AE7264888E7264886E72648E3
:1009E00084E700BF90000020940000208C000020CD
:1009F0009800002030410008990000204D41000877
:100A0000380500209A0000209B0000209D00002057
:100A1000CC0500207D410008C4430008BC4100080B
:100A2000FD41000816420008EC430008324200086D
:100A3000000000206442000877420008834200085A
:100A40009C420008AE420008C0420008DA4200089A
:100A50000058020813430008FD420008DE43000866
:100A600039430008EDFEEFBE424300085243000840
:100A70006943000889430008B143000870B54A483B
:100A800088B002F0FFFB494B1B6801AA03F118066E
:100A9000154618685968144603C40833B342224601
:100AA000F7D11B882380424802F0ECFBDDF80A20D6
:100AB000DDF80E103F4802F075FB9DF80930012B60
:100AC00038D13D4802F06EFB41F2883000F0BEFDA7
:100AD0003A4802F0D7FBDDF80A20394B9A425AD83F
:100AE0003849394800F031FD04460146374802F0E4
:100AF00059FB41F2883000F0A9FDDDF80E30A34229
:100B00004DD1334802F0BEFB0123DDF80A102D4819
:100B10001A46FFF7FDFC00283FD02E4802F0B2FB3A
:100B2000002328468DF80930FFF7B0FD10B12A48A0
:100B300002F0A8FB294802F0A5FB1F4802F032FB97
:100B400042F2107000F082FD254802F09BFBDDF8B8
:100B50000A201B4B9A4224D822491B4800F0F5FC7E
:100B600004460146204802F01DFB42F2107000F0DE
:100B70006DFD1E4802F086FBDDF80E30A34205D065
:100B80001B4802F07FFB1B4802F07CFB1A4802F076
:100B900079FB08B070BD0024ABE71848BEE71848E1
:100BA000C6E70024E1E700BFF94300080000002089
:100BB0000E440008104400082C4400084944000872
:100BC0000F9E010000580208CC0500204B4400088D
:100BD000664400089A440008C8440008EF4400082E
:100BE000F144000800B00008F34400080D45000877
:100BF000584600080F45000839430008B144000872
:100C0000E244000807B54FF0FF330190012201A92B
:100C1000034802F067F8019803B05DF804FB00BFD9
:100C2000A404002000B59BB04422002109A802F0D2
:100C300009FC1822002102A802F004FC154A1368DE
:100C400023F4C06343F400731360136803F4C063B8
:100C50000193019B2023089301210023B02208A8BF
:100C6000CDE91013CDE9122301F060F808B172B696
:100C7000FEE74F23CDE90230CDE90400CDE90600BF
:100C8000022102A801F0ECFA08B172B6FEE71BB02F
:100C90005DF804FB0004005810B5044686B01848FF
:100CA00002F0F0FA174A0392BB2200238DF81520B8
:100CB00015488DF81040012202A90293CDF8113099
:100CC0008DF8084000F041FC104CCDF8110023686D
:100CD000DB699B060BD44FF0FF330A2203A90B48B4
:100CE00002F000F80A4802F0CDFA06B010BD002369
:100CF00001220DF10701204602F046F8E7E700BFA8
:100D00002D450008AA030100CC050020380500206D
:100D10005045000808B5124800F0FEFB114801F0EC
:100D2000FCFD114801F0F9FD4FF400414FF09040F7
:100D300000F0FAFD4FF0B043DA6C22F00102DA6401
:100D4000DA6C22F00202DA6400F0F8FE00F0B0FA89
:100D50004FF0E02300221A615A619A6108BD00BF7A
:100D6000CC05002038050020A4040020F0B50025A3
:100D70008BB000F0C3FAFFF755FFCDE906554FF0F1
:100D8000B0436B4CDA6C42F00202DA64DA6C02F0C7
:100D900002020292029ADA6C42F00102DA64DB6C1F
:100DA000059503F00103019303A9019B4FF09040C7
:100DB0004FF40043CDE9033500F00AFD5D4B25619A
:100DC0004FF4E1370C262046C4E90037C4E9025548
:100DD000C4E90565C4E90755C4E9095502F072F88C
:100DE000014608B172B6FEE7204602F0D8F8014687
:100DF00008B172B6FEE7204602F0F1F808B172B60B
:100E0000FEE7204602F0B0F808B172B6FEE74A4CA1
:100E10004A4BA062C4E90200C4E90406C4E9060022
:100E2000C4E908002046C4E9003702F04BF8014647
:100E300008B172B6FEE7204602F0B1F8014608B1EB
:100E400072B6FEE7204602F0CAF808B172B6FEE7B5
:100E5000204602F089F8034608B172B6FEE738482A
:100E6000384A8380C0E9053301230260036200F041
:100E700019FB08B172B6FEE7334B34481978344E8B
:100E800002F090F9334802F0FDF9334B334A1B6806
:100E900093422AD05A1C28D0B34222D0002400F01A
:100EA0004FFA4CB12E4802F0EDF9FFF745FC02284D
:100EB00038D02C4802F0E6F92B4CFFF7DFFD214635
:100EC0002A4802F06FF92A4802F0DCF9FFF722FF06
:100ED000236883F30888636898473E2002F074F91A
:100EE000FBE7244802F0CEF9D8E70020FFF7D4FE54
:100EF000194D214802F0C6F9204802F0C3F90FCD80
:100F000003AC0FC495E8070003C403A8228003962E
:100F1000FFF7BCFB20B11A4802F0B4F90124BEE788
:100F20001848F9E7184802F0ADF900F061FAC3E794
:100F30003805002000380140A4040020004400408F
:100F4000CC05002000300240040000207845000855
:100F5000EDFEEFBE9245000800A80008EFBEADDE32
:100F60002C4600084B46000800B000088B460008DD
:100F7000AC460008B0450008BD450008DF45000844
:100F8000F545000809460008624600080268034B60
:100F90009A4201D100F0C8B9704700BF002C01404F
:100FA00072B6FEE7704700000268084B9A4282B0B2
:100FB0000AD14FF0B0439A6C42F480529A649B6C11
:100FC00003F480530193019B02B07047003002404C
:100FD0000268054B9A4201BF4FF0B042936C23F474
:100FE00080539364704700BF0030024010B5142254
:100FF00098B0044600210DEB020002F023FA3822DB
:1010000000210AA802F01EFA2368304A93422DD12B
:1010100001244FF440330AA8CDE90A4301F066FAEF
:1010200008B1FFF7BDFF4FF0B043C0201A6E42F485
:1010300080421A661A6E02F480420292029ADA6CB8
:1010400042F00202DA64DB6C03F002030193019BBD
:101050000223CDE905030023CDE907331C4807230C
:10106000099305A900F0B4FB18B010BD194A9342CA
:10107000FAD102230A930AA84FF440230C9301F0FB
:1010800035FA08B1FFF78CFF4FF0B04305A99A6D10
:1010900042F400329A659A6D02F400320492049A86
:1010A000DA6C42F00102DA64DB6C03F001030393B3
:1010B000039B0C220223CDE905230023CDE907334E
:1010C000072309934FF09040CCE700BF0038014060
:1010D000000400480044004003680D4A934209D1CF
:1010E0004FF0B0420B48136E23F480431366C021C7
:1010F00000F01ABC084A934209D14FF0B0420C21CB
:10110000936D23F4003393654FF09040F0E7704700
:101110000038014000040048004400404FF0B04354
:1011200070B51A6E1C4D42F400621A661B6E88B0D0
:1011300003F4006369460193064602A8019B01F08F
:101140008FF901F07DF9154B2B6040F2E733EB602E
:10115000134BB0FBF3F001380023686028462B6185
:10116000AB6001F0A7FB044680B9284601F08EFA77
:10117000044658B9182000F02DF90F2E09D8224640
:101180003146182000F0F4F8064B1E60204608B0E7
:1011900070BD0124FAE700BFF0050020002C0140DB
:1011A00040420F0010000020FEE7FEE7FEE7FEE7EA
:1011B000FEE770477047704770470000014801F034
:1011C0008FBA00BFF005002070B50D4614460E46DC
:1011D000731B9C4201DC204670BDAFF3008006F813
:1011E000010BF5E770B50D4614460E46731B9C4285
:1011F00001DC204670BD16F8010BFFF703FDF5E793
:101200004FF0FF3070474FF400534B6000207047A1
:1012100001207047002070470B4A116810B5034643
:1012200009B90A491160106809490A4C0344091BAD
:101230008B4206D902F054F90C2303604FF0FF30C3
:1012400010BD1360FCE700BF3C060020A80700208B
:101250000000012000040000704700000D48854692
:10126000FFF7FAFF0C480D490D4A002302E0D4585D
:10127000C4500433C4188C42F9D30A4A0A4C0023E0
:1012800001E013600432A242FBD302F02FF9FFF712
:101290006DFDFEE70000012000000020700000202E
:1012A000D447000870000020A8070020FEE7704720
:1012B0004FF0B04310B59A6B4FF0FF329A63D96B81
:1012C000DA630024996B9C63D96BDC63196C1A6434
:1012D000196C1C64596C5A64596C5C64996A9A6202
:1012E000996A9C62D96ADA62D96ADC62196B1A63FC
:1012F0001A6B1C63FFF7DBFF204610BD10B50320FF
:1013000000F024F800F002FD064B18600F20FFF7F4
:1013100005FF044618B9FFF745FE204610BD01241D
:10132000FBE700BF08000020034A044B11681B784C
:101330000B441360704700BF400600200C000020E3
:10134000014B1868704700BF400600200749CA6873
:1013500022F4E0620302120403F4E063120C13436C
:1013600043F0BF6343F40033CB60704700ED00E00F
:10137000164B30B5DC68C4F30224C4F10703251D05
:10138000042B28BF0423062D4FF0FF358CBF033CF0
:10139000002405FA03F321EA0303A54022EA05022B
:1013A000A340002843EA0203ACBF00F16040084AB2
:1013B0004FEA0313B8BF00F00F00DBB2AABF00F57D
:1013C0006140135480F8003330BD00BF00ED00E0F1
:1013D00014ED00E0002807DB044A4109012300F076
:1013E0001F00834042F82130704700BF00E100E059
:1013F000BFF34F8F0549064BCA6802F4E0621343FE
:10140000CB60BFF34F8F00BFFDE700BF00ED00E0F2
:101410000400FA05F0B522F0030506680C469708AB
:101420000D44A54208D112F003021ED0012A14D1A6
:1014300011F82730337018E0637894F800C01B046B
:1014400043EA0C6394F803C043EA0C0394F802C027
:1014500043EA0C2333600434E3E76B78022A11F883
:10146000272043EA0223338002D103681868F0BDC5
:10147000AB78DFE70068F0B5002355088E1C9D426D
:1014800006D1D30744BF31F8253003800068F0BD92
:1014900031F8237036F8234044EA074404600133EE
:1014A000EDE7000010B5044608B9012010BD437FE8
:1014B00003F0FF0213B90277FFF776FD022363778B
:1014C0002379E3B92368134A5A619A6822F0180213
:1014D0009A6062792368D2B94FF0FF321A619A6834
:1014E000616922F060020A439A609A68A16922F059
:1014F00080020A439A60012363770020D6E7D4E98B
:101500000212204600F045F80028E2D0CDE722691B
:10151000E4E700BFB71DC10438B5054698B1437F65
:10152000022BDCB20DD00223437703689A6842F0A5
:1015300001029A6000245A685C60FFF749FD6C77ED
:101540002C77204638BD0124FBE7F8B50226467704
:101550000668B76847F00107B760076A022F0446BC
:1015600014D0032F05D0012F0DD000200123637765
:10157000F8BD01EB8205A94201D13068F6E751F8C8
:10158000043B3360F7E7FFF745FFEFE7FFF772FF34
:10159000ECE7CB0710B50DD51F23013B1DD321FA76
:1015A00003F4E407F9D5102A13D0102A04D83AB16D
:1015B000082A10D001200BE0182AFBD1062BF9D8FD
:1015C00000684161836823F018031343836000209F
:1015D00010BD072BF3E70F2BF1E7102AE5D1E9E760
:1015E0000A4A536943F4802330B55361EFF3108402
:1015F00072B60023CD58C5500433B3F5807FF9D1BE
:101600001369DB03FCD484F3108830BD004000581C
:10161000064B5A69002ABFBF054A9A6002F1883218
:101620009A60BABF5869C00F002070470040005848
:1016300023016745044B5A6942F000425A615869D8
:10164000C043C00F704700BF0040005870B505464A
:10165000FFF776FE124E04463369D90313D433697B
:10166000DA0744BF012232614CF2FA32134011D141
:101670000B4E306910F480200BD0FFF761FE001B89
:10168000A842F6D304E0FFF75BFE001BA842E3D3B9
:10169000032070BD024A1361024A01205360F8E73B
:1016A00000400058440600202DE9F041184D9846AE
:1016B0002B78012B06460C46174626D001232B70AB
:1016C0004FF47A7000236B60FFF7C0FFA0B9012EC2
:1016D00016D1104A536943F0010353612760BFF3E9
:1016E0006F8FC4F804804FF47A70FFF7AFFF094A98
:1016F000536923EA0603536100232B70BDE8F08190
:1017000039462046FFF76CFFEDE70220F6E700BF01
:101710004406002000400058054A536923F47E73B4
:1017200043EAC00040F4803040F00200506170474E
:10173000004000582DE9F041234F3B78012B05462E
:1017400088463FD001233B704FF47A7000237B60C2
:10175000FFF77CFF044688B92B68042B13D11B4A82
:10176000536943F4803343F0040353614FF47A70B8
:10177000FFF76CFF0446154B1A681B6800233B708B
:101780002046BDE8F0814FF0FF33C8F800306E68A6
:10179000D5E901321344B3420AD93046FFF7BCFF02
:1017A0004FF47A70FFF752FF50B1C8F8006004465A
:1017B000064A536923F47E7323F002035361DAE788
:1017C0000136E5E70224DBE744060020004000582C
:1017D0002DE9F04F524C00234FF00F090A6832FAFE
:1017E00003F501D1BDE8F08F012505FA03F818EAE9
:1017F000020200F08E804E68032706F003054FEAD0
:10180000430E07FA0EFC6F1E012F6FEA0C0C32D844
:10181000876807EA0C0ACF6807FA0EF747EA0A0753
:101820008760476827EA0808C6F300179F4047EA21
:1018300008074760C76807EA0C088F6807FA0EF7C1
:1018400047EA0807022DC76017D14FEAD30800EB1B
:10185000880803F0070AD8F820704FEA8A0A09FAC4
:101860000AFB27EA0B0B0F6907FA0AF747EA0B078F
:10187000C8F8207001E0032DDCD1076805FA0EF5E9
:1018800007EA0C073D4316F4403F056041D023F0C2
:10189000030707F1804707F5803703F0030CBD68A5
:1018A0004FEA8C0C4FF0070E0EFA0CFEB0F1904F81
:1018B00025EA0E0E2FD01B4DA8422ED005F58065CF
:1018C000A84214BF0725022505FA0CF545EA0E05C6
:1018D000BD602568D74316F4801F0CBF3D401543FB
:1018E0002560656816F4001F0CBF3D401543656018
:1018F000D4F8805016F4803F0CBF3D401543C4F827
:101900008050D4F88450B60354BF3D401543C4F80A
:101910008450013362E70025D6E70125D4E700BFF4
:101920000008005800040048374A2DE9F04F002312
:101930004FF0010A4FF0070B4FF00F0931FA03F493
:1019400001D1BDE8F08F0AFA03FC1CEA010654D06D
:1019500023F0030404F1804404F5803403F003070A
:10196000A568BF000BFA07F8B0F1904F08EA050E22
:1019700045D0264DA84244D005F58065A8420CBF4D
:1019800002250725BD40754517D1D2F8805025EABC
:101990000605C2F88050D2F8845025EA0605C2F840
:1019A0008450156825EA06051560556825EA060580
:1019B0005560A56825EA0805A560056803265C0052
:1019C00006FA04F423FA06F6254300EB86060560C2
:1019D00003F00705376AAD0009FA05F527EA0507A0
:1019E0003762856825EA04058560456825EA0C05A7
:1019F0004560C56825EA0404C46001339EE70025FC
:101A0000C0E70125BEE700BF0008005800040048F9
:101A1000024A136843F4807313607047000400584F
:101A2000024B186800F4C060704700BF0004005803
:101A30004FF0B0431868C0F3404070474FF0B043D8
:101A40001868C0F3400070474FF0B042536823F469
:101A50007F4343EA0023536070474FF0B043186858
:101A6000C0F34060704700007FB54FF0B0432C4A90
:101A7000D3F80831C0F3031003F00F0352F82040ED
:101A8000284A52F82330B4FBF3F4FFF7C9FF264B82
:101A9000054693E80700B5F5007F04AB03E90700AE
:101AA00010D0224B9C4218D303F5B70303F67F53A3
:101AB0009C4229D903F5741303F510639C4225D881
:101AC00002230BE01A4B9C4207D91A4B9C421BD9AC
:101AD00003F5370303F5D853F0E7002304AA02EB1C
:101AE000830353F80C4C144D2B6823F00703234356
:101AF0002B60FFF725FC06462B6803F007039C428A
:101B000006D1002004B070BD0123E7E70024EAE716
:101B1000FFF716FC801B0228EED90320F2E700BF76
:101B2000C846000828470008DC3F0008C0CF6A000C
:101B3000BFEA21013F9334020040005870B5FFF71F
:101B4000FFFB4FF0B0420446136843F001031360FB
:101B5000FFF774FF002848D04FF0B04400202368FE
:101B600023F0F00343F060032360FFF76DFF636829
:101B700023F0FE4343F080436360FFF7E1FB002363
:101B80000546A36041F28836A36813F00C0F33D1E9
:101B90002268224B13402360FFF7D2FB0446FFF775
:101BA00047FF78BB4FF0B042136823F40013136073
:101BB000FFF7C6FB0446FFF750FF48BB4FF0B043AA
:101BC000174ADA604FF0FF3298611A624FF44032E0
:101BD000C3F80821134B144A1A60144B1868FFF716
:101BE0009DFA003818BF012005E0FFF7A9FB001B94
:101BF0000228ADD9032070BDFFF7A2FB401BB04205
:101C0000C2D9F7E7FFF79CFB001B6428C7D9F1E7AF
:101C1000FFF796FB001B0A28CDD9EBE7FFF4EEFE99
:101C2000000104220800002000093D0010000020EF
:101C30004FF0B04310B59A68D96812F00C0205D085
:101C40000C2A4AD101F00303012B51D14FF0B041CE
:101C50002B480B6813F0080306D00B6813F0080339
:101C600037D1D1F8941007E00C68240756BFD1F89B
:101C700094300968C3F3032350F82330002A0CBFC3
:101C8000184600204FF0B0418A6802F00C020C2A7E
:101C90001ED1CA6802F00302022A2ED0032A06D1FE
:101CA0000B68184A13F4801F174B18BF13464FF0E8
:101CB000B042D068D168D268C0F306205843C1F35F
:101CC00002130133B0FBF3F0530F0133B0FBF3F019
:101CD00010BD0B68C3F30313CEE7042A05D0082A0E
:101CE00006D11B6813F4801305D006480023C9E70A
:101CF00000231846C6E70448C4E7024BD7E700BFF5
:101D0000C84600080024F4000048E80108B5FFF7C1
:101D10008FFF4FF0B043044A9B68C3F3031352F89C
:101D20002330B0FBF3F008BD284700082DE9F0414F
:101D30000446002853D04FF0B0439D68DE68036826
:101D40009B0605F00C0506F0030668D5026A1DB176
:101D50000C2D46D1012E44D1002A40D04FF0B04383
:101D6000A16A1A68170756BFD3F894301B681B097D
:101D700003F0F00399421FD90846FFF775FE0028CB
:101D80002DD14FF0B042136843F00803136013687D
:101D9000A16A23F0F0030B431360606AFFF754FE5F
:101DA000FFF7B4FFAB4B1860AB4B1868FFF7B6F901
:101DB000002834D0BDE8F0814FF0B042136843F002
:101DC00008031360136823F0F0030B431360606A89
:101DD000FFF73AFE0846FFF747FE0028E0D0012053
:101DE000E8E74FF0B043002A54D01A6842F00102ED
:101DF0001A60FFF7A5FA0746FFF720FE002842D039
:101E00004FF0B042136843F0080313601368A16AEF
:101E100023F0F0030B431360606AFFF715FE23689D
:101E2000D80748D42368990700F18C8023681E07DF
:101E300040F1FA80A3694FF0B046002B00F0E1803A
:101E4000D6F89430E16903F01002914200F0C480AA
:101E500003F00302022AC2D0D80740F1B380D6F8BB
:101E6000943023F00103C6F89430FFF769FA07466F
:101E7000D6F89430990740F1A580FFF761FAC31BAB
:101E8000112BF5D904E0FFF75BFAC01B0228B3D988
:101E900003208FE71A6822F001021A60FFF750FA58
:101EA0000746FFF7CBFD0028B9D0FFF749FAC01B62
:101EB0000228F6D9ECE7082D03D00C2D05D1032E0E
:101EC00003D16368002BADD189E74FF0B043A1681F
:101ED0001A6822F480120A431A606268B2F5803FE1
:101EE00010D11A6842F480321A60FFF729FA0746C7
:101EF000FFF79EFD002895D1FFF722FAC01B64284A
:101F0000F6D9C5E7B2F5041F04D11A6842F40012ED
:101F10001A60E6E7196821F480311960196821F424
:101F200000111960002AE0D1FFF70AFA0746FFF70F
:101F30007FFD00283FF476AFFFF702FAC01B64284C
:101F4000F5D9A5E7042D236903D00C2D0ED1022E5F
:101F50000CD1002B3FF443AF4FF0B042616953689E
:101F600023F0FE4343EA016353605FE74FF0B0465E
:101F7000BBB1336843F480733360FFF7E1F9074680
:101F800033685A0505D4FFF7DBF9C31B022BF7D9D9
:101F90007EE77368626923F0FE4343EA026373607D
:101FA00044E7336823F480733360FFF7C9F90746C9
:101FB00033685B057FF53AAFFFF7C2F9C31B022B0D
:101FC000F6D965E74FF0B042E169D2F8943023F0DA
:101FD00010030B43C2F894304FF0B047D7F8943059
:101FE00043F00103C7F89430FFF7AAF90646D7F883
:101FF00094309A0718D4FFF7A3F9831B112BF6D955
:1020000046E7D6F8943023F00103C6F89430FFF782
:1020100097F90746D6F894309B0705D5FFF790F956
:10202000C31B112BF6D933E72368580754D50B4F40
:102030003B68D90514D4FFF7EBFCFFF781F906469E
:102040003B68DA050CD4FFF77BF9831B022BF7D929
:102050001EE700BF08000020100000200004005808
:10206000E3684FF0B046002B58D023F08003052BD7
:1020700002BFD6F8903043F00403C6F890304FF01A
:10208000B046FFF75DF9D6F8903043F001030746FC
:10209000C6F8903041F28838D6F890309B0705D4C6
:1020A000FFF74EF9C31B4345F6D9F1E6E36823F089
:1020B0000403812B1BD1FFF743F9D6F8903043F08E
:1020C0008003C6F8903007464FF0B04641F288389A
:1020D000D6F89030180504D5E36A002B4AD10020C9
:1020E00068E6FFF72DF9C01B4045F1D9D0E6FFF7B0
:1020F00027F9D6F8903023F08003C6F890300746D1
:102100004FF0B04641F28838D6F890301905E3D543
:10211000FFF716F9C01B4045F6D9B9E6FFF710F9ED
:10212000D6F8903023F080030746C6F8903041F28D
:102130008838D6F890301A0516D4FFF701F9D6F88A
:10214000903023F00103C6F8903007464FF0B048B6
:1021500041F28836D8F890309B07BDD5FFF7F0F8EC
:10216000C31BB342F6D993E6FFF7EAF8C01B40451C
:10217000DFD98DE60C2D4ED0022B4FF0B0431A68FC
:1021800022F080721A6033D1FFF7DAF80546FFF7C4
:1021900064FC38BBD4E90C314FF0B0420B43D0683B
:1021A0002D4901400B43E16B0B43216C0B43616CE8
:1021B0000B43A16B43EA0123D360136843F08073A0
:1021C0001360D36843F08053D360FFF7B9F8044637
:1021D000FFF743FC002882D1FFF7B2F8001B0A2862
:1021E000F6D955E6FFF7ACF8401B0A28CFD94FE6E1
:1021F000FFF7A6F80446FFF730FC30B94FF0B042C5
:10220000164BD1680B40D36069E7FFF799F8001BC4
:102210000A28F0D93CE6012B3FF4E1AD4FF0B04382
:10222000D868236B00F003029A427FF4D8AD626B4A
:1022300000F0700393427FF4D2ADA26B00F4FE4332
:10224000B3EB022F7FF4CBAD636C00F06040C01A9B
:1022500018BF0120AEE500BF8C80C111FCFFFEEE6F
:102260002DE9F0410D46044610B90120BDE8F0818A
:10227000684E336803F007038B4216D323689A072E
:1022800027D54FF0B047A268BB6823F0F003134393
:10229000BB60FFF755F80646BB68DB0319D4FFF7B0
:1022A0004FF8831B022BF7D911E0336823F00703A3
:1022B0000B433360FFF744F80746336803F0070326
:1022C000AB42DBD0FFF73CF8C01B0228F5D9032056
:1022D000CCE72368580617D54FF0B0476269D7F8A6
:1022E000083123F00F0343EA1213C7F80831FFF750
:1022F00027F80646D7F80831D90305D4FFF720F8A8
:10230000831B022BF6D9E2E723685A0713D54FF057
:10231000B047E268BB6823F4E0631343BB60FFF798
:102320000FF80646BB689B0305D4FFF709F8831B2B
:10233000022BF7D9CBE72368180714D54FF0B04725
:102340002269BB6823F4605343EAC203BB60FEF713
:10235000F7FF0646BB68590305D4FEF7F1FF831B60
:10236000022BF7D9B3E72368DA070FD4294C236887
:1023700003F00703AB4239D8FFF7C8FC264B1860BF
:10238000264BBDE8F0411868FEF7C8BE6268022A15
:102390001DD1FFF74DFB00283FF467AF4FF0B0466B
:1023A00041F28838B36823F003031343B360FEF7A8
:1023B000C7FF0746B368626803F00C03B3EB820FF4
:1023C000D4D0FEF7BDFFC01B4045F3D97FE7032AF9
:1023D00002D1FFF742FBDEE712B9FFF72FFBDAE786
:1023E0004FF0B0431B685B05D8D43EE7236823F069
:1023F00007032B432360FEF7A3FF0646236803F081
:102400000703AB42B8D0FEF79BFF801B0228F5D92B
:102410005DE700BF004000580800002010000020C9
:1024200008B5FFF773FC4FF0B043044A9B68C3F351
:10243000022352F82330D84008BD00BF08470008E7
:1024400008B5FFF763FC4FF0B043044A9B68C3F341
:10245000C22352F82330D84008BD00BF0847000807
:1024600010B5D8B1D1B14F234FF0B042036093689B
:1024700003F00C04446003F0F004846003F4E064AF
:1024800003F46053C4600361D2F808311B01DBB26E
:102490004361034B1B6803F007030B6010BD00BFD3
:1024A000004000584FF0B043D3F89000C0F3400014
:1024B00070474FF0B0410209D1F8883002F47F2212
:1024C000000123EA020300F47F200343C1F88830AF
:1024D00070474FF0B041020CD1F88830120423EA63
:1024E000020343EA0040C1F8880070470368DA033A
:1024F00070B5044639D5FFF78BFAFEF721FF614E20
:1025000005463368DB0532D54FF0B043616BD3F835
:10251000902002F4407291421DD0D3F89010D3F86D
:10252000902042F48032C3F89020D3F8902021F418
:10253000407022F480328D07C3F89020C3F89000D9
:1025400009D5FEF7FDFE41F288360546FFF7AAFFE2
:10255000012840F090804FF0B042616BD2F890308B
:1025600023F440730B43C2F89030002605E0FEF7D9
:10257000E7FE401B0228C4D903262568E8070AD5D0
:102580004FF0B0416268D1F8883023EA124392B22A
:102590001343C1F88830A9070AD54FF0B041A268AB
:1025A000D1F8883023EA124392B21343C1F888303D
:1025B000AA0609D54FF0B0422169D2F8883023F439
:1025C00040630B43C2F88830AB0502D5206AFFF7A1
:1025D00080FF680502D5606AFFF77BFF290502D5F9
:1025E000A06AFFF776FF6A0602D56069FFF761FF10
:1025F0002B0602D5A069FFF75CFFE80502D5E0696C
:10260000FFF757FFE90610D54FF0B042E168D2F866
:10261000883023F440730B43C2F88830B1F5807FD3
:1026200002BFD36843F08073D3602A040ED54FF005
:10263000B042216BD2F8883023F040430B43C2F8FC
:10264000883019B9D36843F08073D3606B0410D518
:102650004FF0B042E16AD2F8883023F040530B4388
:10266000B1F1005FC2F8883003D1D36843F48033FE
:10267000D360304670BDFEF763FE401BB0427FF66C
:1026800065AF79E7000400587047000090F83D30CE
:10269000012B1BD1022380F83D300368DA6842F039
:1026A0000102DA600A4A934202D0B3F1804F07D1A7
:1026B0009968084A0A40062A06D0B2F5803F03D03E
:1026C0001A6842F001021A6000207047012070472A
:1026D000002C0140070001007047704770477047A9
:1026E00003681A69910710B504460FD5DA68920796
:1026F0000CD56FF002021A61012202779B699907DB
:1027000000F08580FFF7E9FF0023237723681A692B
:10271000520710D5DA6850070DD56FF004021A6120
:10272000022222779B6913F4407F204675D0FFF781
:10273000D4FF0023237723681A6911070FD5DA68BD
:1027400012070CD56FF008021A6104222277DB69A8
:102750009B07204667D0FFF7C0FF0023237723683D
:102760001A69D00610D5DA68D1060DD56FF01002BF
:102770001A6108222277DB6913F4407F204658D083
:10278000FFF7ABFF0023237723681A69D20708D528
:10279000DA68D00705D56FF001021A612046FEF70E
:1027A000F5FB23681A69110608D5DA68120605D503
:1027B0006FF080021A61204600F0ADF823681A69B4
:1027C000D00508D5DA68110605D56FF480721A6154
:1027D000204600F0A1F823681A69520608D5DA6885
:1027E000500605D56FF040021A612046FFF777FFCB
:1027F00023681A69910622D5DA6892061FD56FF010
:10280000200220461A61BDE8104000F083B8FFF7AF
:1028100063FF2046FFF762FF76E7FFF75DFF204684
:10282000FFF75CFF85E7FFF757FF2046FFF756FFEE
:1028300093E7FFF751FF2046FFF750FFA2E710BDD7
:102840001A4A0368904210B502D0B0F1804F09D106
:102850004C6823F07003904243EA040309D0B0F1BE
:10286000804F06D0124A904203D002F58062904217
:1028700003D1CA6823F4407313434A6923F08003E9
:10288000134303608B68C3620B688362074B9842F3
:1028900007D003F5C053984203D003F580639842F4
:1028A00001D10B6903630123436110BD002C01407A
:1028B0000044014010B5044650B390F83D3003F099
:1028C000FF021BB980F83C20FFF7DEFE02232068E0
:1028D00084F83D30211DFFF7B3FF012384F8483011
:1028E000002084F83E3084F83F3084F8403084F88B
:1028F000413084F8423084F8433084F8443084F81E
:10290000453084F8463084F8473084F83D3010BDB7
:102910000120FCE770477047704738B50546C8B1DD
:102920002423C0F8883003681A68002422F00102CA
:102930001A601C605C609C60FEF7CEFBC5F890409E
:1029400085F88440C5F888402046C5F88C40EC6680
:102950002C6738BD0120FCE738B5044603682169BF
:10296000A2681D68C0690A4361690A437749024346
:1029700029400A431A605A68E16822F440520A4327
:102980005A60734AA16993421CBF226A11439A6834
:1029900022F06E4222F430620A439A60DA6A616A77
:1029A00022F00F020A43DA626A4A934219D14FF0C9
:1029B000B043694AD3F8883003F0030343F440334B
:1029C000934200F0B480B3F1031F24D0013A934244
:1029D00040F0B580B0F5004F40F08F80FFF728F948
:1029E0006EE05E4A93421CD14FF0B0435C49D3F88D
:1029F000883003F00C0343F440228A4200F09780B1
:102A000006D8002B7CD0574B9A42E3D0012026E019
:102A1000B2F10C1FFAD1B0F5004F53D04FF4004083
:102A200075E04B4A9342F1D14FF0B043D3F8883070
:102A300003F44063B3F5006F18D006D85BB1B3F56B
:102A4000806FE3D1FFF7F4F807E0B3F5406FDDD115
:102A50004FF400400BE0FFF7E3FC40B900204FF0DB
:102A60000113A3660023C4E91D3338BD3E486568E1
:102A70003E4B626A05EB450133F81220B0FBF2F3DE
:102A80009942C3D8B3EB053FC0D800231946FDF7E0
:102A9000C7FB090241EA10616B080002C0182A4610
:102AA0004FF0000341F10001FDF7BAFB304BA0F5F8
:102AB00040729A42AAD82368D860CFE7FFF7B0FCEB
:102AC0000028CBD06168294B626A33F81220B0FB32
:102AD000F2F24B0803EB42034FF6EF72B3FBF1F354
:102AE000A3F11001914291D823F00F02216892B214
:102AF000C3F342031343CB60B0E7FFF799F804E058
:102B0000B0F5004FDAD0FFF78BFC0028A6D0636841
:102B1000616A164A32F81120B0FBF2F000EB530064
:102B2000B0FBF3F04FF6EF73A0F11002C1E7B0F580
:102B3000004F0D48EBD1C5E7FFF782FCC0E7B0F5C9
:102B4000004FF9D0FFF77CFCDFE700BFF369FFCF50
:102B500000800040003801400200030000440040B3
:102B600008000C0004000C000024F4006847000872
:102B7000FFFC0F00836ADA0710B506D50168C46A46
:102B80004A6822F4003222434A609C0706D5016855
:102B9000046B4A6822F4803222434A60590706D502
:102BA0000168446B4A6822F4802222434A601A0773
:102BB00006D50168846B4A6822F4004222434A60C9
:102BC000DC0606D50168C46B8A6822F48052224371
:102BD0008A60990606D50168046C8A6822F400525E
:102BE00022438A605A060FD50168446C4A6822F471
:102BF00080122243B4F5801F4A6005D14A68846C74
:102C000022F4C00222434A601B0606D50268C16C4A
:102C1000536823F400230B43536010BD2DE9F843A0
:102C2000DDF8209005460F46164698462A68D36977
:102C300037EA03030CBF01230023B34201D0002075
:102C400029E0B9F1FF3FF2D0FEF77AFBA0EB0800D4
:102C500048452C6802D8B9F1000F1ED154E8003F56
:102C600023F4D07344E80032002AF7D104F10803BA
:102C700053E8003F23F0010304F1080141E800326A
:102C8000002AF3D12023C5F88830C5F88C30002302
:102C900085F884300320BDE8F88323685A07C5D53A
:102CA000E3691B05C2D54FF40063236254E8003F7B
:102CB00023F4D07344E80032002AF7D104F108036A
:102CC00053E8003F23F0010304F1080141E800321A
:102CD000002AF3D12023C5F88830C5F88C30C5F818
:102CE0009030D4E72DE9F7439846D0F88830202B70
:102CF00004460E46174643D1002943D0002A41D04E
:102D000021230025C0F89050C0F88830FEF718FB4A
:102D1000A368A4F85470B3F5805F8146A4F8567098
:102D200003D123690BB935461E46B4F85620CDF8B9
:102D3000008092B24B4642B940212046FFF76EFF19
:102D400048B92023C4F8883006E0002280212046BC
:102D5000FFF764FF18B1032003B0BDE8F0832268D9
:102D60005EB935F8023BC3F308039362B4F856200A
:102D7000013A92B2A4F85620D7E716F8013BF4E7DF
:102D80000220E9E70120E7E72DE9F7439846D0F86C
:102D90008C30202B04460F46164658D1002958D0B7
:102DA000002A56D022230025C0F89050C0F88C305D
:102DB000C566FEF7C5FAA368A4F85C60B3F5805F4A
:102DC0008146A4F85E600FD12369D3B1FF26324655
:102DD000A4F86020B4F85E0080B2F8B92023C4F8EB
:102DE0008C3003B0BDE8F08323B9256995B9FF2283
:102DF0001646EDE7B3F1805F09D1236953B13F2255
:102E0000F6E740F2FF163D4632460027E0E72A4645
:102E10002E46DDE77F2216461D46D9E7CDF8008015
:102E20004B46002220212046FFF7F8FE98B9236880
:102E30005B6A334047B925F8023BB4F85E30013B8A
:102E40009BB2A4F85E30C5E707F8013BF5E7022026
:102E5000C7E70120C5E70320C3E773B50446002692
:102E6000C0F89060FEF76CFA23681B681A070546E5
:102E700019D423681B685B070AD56FF07E43009363
:102E800000222B464FF480012046FFF7C7FEB0B961
:102E900000202023C4F8883084F88400C4F88C30E3
:102EA000E06620670CE06FF07E43009332460346F5
:102EB0004FF400112046FFF7B1FE0028D9D00320BF
:102EC00002B070BD10B5044650B3D0F888301BB9BD
:102ED00080F88430FEF78AF822682423C4F888300A
:102EE000136823F0010313602046FFF735FD012826
:102EF00016D0A36A13B12046FFF73CFE23685A6838
:102F000022F490425A609A6822F02A029A601A6863
:102F100042F0010220461A60BDE81040FFF79DBF55
:102F2000012010BD436E30B52BB90123A0F86A30E3
:102F3000A0F8683030BD0368094D9A689968094C5B
:102F4000490FC2F342626B5C615CDB00B3FBF1F3DF
:102F5000A0F86A30AB5CA25CDB00B3FBF2F3E7E7FE
:102F6000884700088047000890F88430012B14D06F
:102F700002682423C0F888301168136823F0010325
:102F8000136021F000510023436611602022C0F835
:102F9000882080F88430184670470220704770B54A
:102FA00090F88430012B044617D005682423C0F81C
:102FB00088302E682B6823F001032B60AB6823F068
:102FC00060431943A960FFF7ADFF20232E60C0F8CE
:102FD0008830002084F8840070BD0220FCE770B5C2
:102FE00090F88430012B044617D005682423C0F8DC
:102FF00088302E682B6823F001032B60AB6823F028
:1030000060631943A960FFF78DFF20232E60C0F88D
:103010008830002084F8840070BD0220FCE70000A6
:10302000002310B50446C0E90033C0E904338360CF
:1030300081814366C2818361194608225C3000F0B9
:1030400001FA0D4B63620D4BA3620D4BE3620D4B16
:1030500023630D4B24629C4206D003F16802944224
:1030600002D0D0339C4205D104F15800BDE8104095
:1030700000F060BA10BD00BF95320008B7320008FA
:10308000EF320008133300085C060020024A0349AF
:10309000034800F069B800BF14000020E53D0008B7
:1030A0002400002041680C4B994210B5044601D021
:1030B00000F098FEA168094B994202D0204600F02A
:1030C00091FEE168064B994204D02046BDE81040CD
:1030D00000F088BE10BD00BF5C060020C4060020C2
:1030E0002C07002010B50B4B0B4C0C4A1A602046E5
:1030F00000220421FFF794FF04F168000122092156
:10310000FFF78EFF04F1D0000222BDE8104012212B
:10311000FFF786BF940700205C0600208D30000872
:10312000014800F008BA00BF9D070020014800F0E8
:1031300003BA00BF9D07002010B50446FFF7F0FF5B
:10314000236A1BB1BDE81040FFF7F0BF044B2362B8
:10315000044B1B68002BF5D1FFF7C4FFF2E700BF5B
:10316000A5300008940700202DE9F843074688465B
:1031700014460026D4E90195B9F1010905D5246862
:10318000002CF7D13046BDE8F883AB89012B07D975
:10319000B5F90E30013303D029463846C0470643FF
:1031A0006835E9E70FB407B5064904AB086853F87A
:1031B000042B8168019300F0EFFA03B05DF804EB93
:1031C00004B0704720000020024B01461868826856
:1031D00000F092BE20000020036A70B584680546A6
:1031E0000E460BB9FFF7A8FF636EDB0705D4A38972
:1031F000980502D4A06D00F09EF9A389190702D5A5
:103200002369002B35D12146284600F0C5F880B34C
:103210004FF0FF35636EDA0705D4A3899B0502D40E
:10322000A06D00F089F9284670BD002B04DAA26970
:103230009A4217DC0A2915D023685A1C226019709B
:10324000A36816F8011F013BA3600029EDD1002BF4
:1032500011DA22460A21284600F05FF80130D7D063
:103260000A25D7E72246284600F057F80130E7D173
:10327000CEE7013EE4E723685A1C22600A221A7056
:10328000EEE70000024B01461868FFF7A5BF00BF3C
:103290002000002010B50C46B1F90E1000F0FCF82B
:1032A0000028ABBF636DA3891B1823F48053ACBF08
:1032B0006365A38110BD2DE9F0411F468B89DB05B5
:1032C00005460C46164605D5B1F90E10022300221C
:1032D00000F0D0F8A389B4F90E1023F48053A38131
:1032E00032463B462846BDE8F04100F0E7B810B54D
:1032F0000C46B1F90E1000F0BDF8431CA38915BFB0
:10330000606523F4805343F48053A38118BFA381E5
:1033100010BDB1F90E1000F09DB8F8B50E46144678
:10332000054618B1036A0BB9FFF706FFA369A3604E
:10333000A3891A0701D5236943B92146284600F01D
:103340002BF818B14FF0FF373846F8BD23682269D3
:10335000981A6369F6B28342374605DC214628464F
:1033600000F040FD0028EDD1A368013BA360236875
:103370005A1C22601E706269431C9A4204D0A389C1
:10338000DB07E1D50A2EDFD12146284600F02AFDD1
:103390000028D9D0D6E7000038B5294B0546186873
:1033A0000C4618B1036A0BB9FFF7C6FEB4F90C302E
:1033B000190722D4DA0607D409222A6043F0400311
:1033C000A3814FF0FF3033E0580712D5616B41B154
:1033D00004F14403994202D0284600F0BDF80023CE
:1033E0006363A38923F02403A3810023636023691B
:1033F0002360A38943F00803A38123694BB9A38900
:1034000003F42073B3F5007F03D02146284600F073
:1034100037FDB4F90C3013F001020AD00022A2608B
:1034200062695242A261226942B913F08000C5D19B
:1034300038BD990758BF6269A260F4E70020F7E73A
:103440002000002002440346934200D1704703F855
:10345000011BF9E738B5064D0023044608462B60EA
:10346000FDF7CEFE431C02D12B6803B1236038BDAB
:103470009807002038B5074D04460846114600223B
:103480002A601A46FDF7C6FE431C02D12B6803B121
:10349000236038BD9807002038B5074D044608461C
:1034A000114600222A601A46FDF78EFE431C02D107
:1034B0002B6803B1236038BD9807002038B5074D4D
:1034C00004460846114600222A601A46FDF78AFE85
:1034D000431C02D12B6803B1236038BD980700203C
:1034E000014B1868704700BF2000002070B50D4DDB
:1034F0000D4C641BA4100026A64209D10B4D0C4CA8
:1035000000F060FD641BA4100026A64205D170BD2A
:1035100055F8043B98470136EEE755F8043B9847C9
:103520000136F2E7CC470008CC470008CC4700083A
:10353000D04700087047704770470A44914200F135
:10354000FF3300D1704710B511F8014B03F8014F5C
:103550009142F9D110BD000038B50546002941D08F
:1035600051F8043C0C1F002BB8BFE41800F0E0F841
:103570001D4A136833B9636014602846BDE83840BB
:1035800000F0DCB8A34208D9206821188B4201BFA3
:1035900019685B6809182160EDE71A465B680BB192
:1035A000A342FAD911685018A0420BD120680144F7
:1035B000501883421160E0D118685B68536008447A
:1035C0001060DAE702D90C232B60D6E720682118B7
:1035D0008B4204BF19685B68636004BF09182160EF
:1035E0005460CAE738BD00BFA407002070B50F4E75
:1035F0000C463168054611B900F0D4FC3060214614
:10360000284600F0CFFC431C03D14FF0FF34204686
:1036100070BDC41C24F00304A042F8D0211A28462F
:1036200000F0C0FC0130F2D1EFE700BFA00700209E
:103630002DE9F843CD1C25F0030508350C2D38BFC6
:103640000C25002D064601DBA94204D90C2333606A
:103650000020BDE8F883DFF8D48000F069F8D8F8DE
:1036600000301C4644BB29463046FFF7BFFF431CD1
:10367000044658D1D8F800402746002F43D1002CEB
:103680004BD023683946304604EB030900F08AFC2E
:10369000814542D121686D1A29463046FFF7A6FFC1
:1036A00001303AD023682B442360D8F800305A68A0
:1036B00062BBC8F800700FE02268521B20D40B2AAE
:1036C00017D96119A342256018BF5960636808BF04
:1036D000C8F8001062514B60304600F02FF804F13A
:1036E0000B00231D20F00700C21A1CBF1B1AA35099
:1036F000AFE76268A3420CBFC8F800205A60EBE74E
:1037000023466468AEE73C467F68B6E71A465B68C6
:10371000A342FBD100235360DEE70C233360304625
:1037200000F00CF894E70560D6E700BFA40700207E
:103730000148FFF700BF00BF9C0700200148FFF7CA
:10374000FBBE00BF9C0700209368013B002B10B418
:10375000936007DA9469A34201DB0A2902D110BC05
:10376000FFF7DBBD1368581C10601970084610BCC9
:103770007047F8B506460F461446D518AC4201D13D
:10378000002007E014F8011B3A463046FFF7DCFF43
:10379000431CF3D1F8BD00002DE9F04F0D469DB05C
:1037A00014469846064618B1036A0BB9FFF7C4FCE5
:1037B0006B6ED90705D4AB899A0502D4A86DFFF7C3
:1037C000BAFEAB891B0701D52B699BB92946304648
:1037D000FFF7E2FD70B16B6EDC0704D54FF0FF30F0
:1037E0001DB0BDE8F08FAB899805F7D4A86DFFF741
:1037F000A3FEF3E70023099320238DF82930CDF8A9
:103800000C803023DFF8AC818DF82A304FF00109AD
:1038100023469A4613F8012B0AB1252AF9D1BAEBAF
:10382000040B0BD05B46224629463046FFF7A1FF2A
:10383000013000F0A780099A5A4409929AF80030A2
:10384000002B00F09F8000234FF0FF32CDE90523CD
:103850000AF1010A049307938DF853301A935446E2
:10386000052214F8011B5348FCF78AFC049AD8B9C6
:10387000D10644BF20238DF85330130744BF2B23B8
:103880008DF853309AF800302A2B15D0079A5446F9
:1038900000204FF00A0C214611F8013B303B092B68
:1038A0004BD9B0B1079214E0A0EB080309FA03F377
:1038B00013430493A246D2E7039B191D1B6803918F
:1038C000002BBBBF5B4242F0020207930793B8BFD5
:1038D000049223782E2B0AD163782A2B32D1039BB2
:1038E0001A1D1B68039243EAE37302340593DFF861
:1038F000C8A0217803225046FCF742FC38B1049B53
:10390000A0EB0A004022824013430134049314F8D0
:10391000011B2A488DF828100622FCF731FC0028EC
:103920003FD0274B1BBB039B073323F00703083310
:103930000393099B3B4409936AE70CFB02320C4654
:103940000120A8E700230134059319464FF00A0C23
:10395000204610F8012B303A092A03D9002BC6D093
:103960000591C4E70CFB012104460123F0E703ABFA
:1039700000932A46134B04A93046AFF30080074654
:10398000781CD6D16B6ED90705D4AB899A0502D4C1
:10399000A86DFFF7D1FDAB895B063FF51FAF099816
:1039A0001EE703AB00932A46064B04A9304600F0FD
:1039B00079F8E4E790470008964700089A4700081E
:1039C00000000000733700082DE9F04716469846BE
:1039D0008A680B69DDF820909342B8BF13463360C4
:1039E00091F8432007460C460AB10133336023683F
:1039F000990642BF336802333360256815F0060527
:103A000006D104F1190AE36832689B1AAB4226DC3E
:103A100094F843302268003B18BF012392062BD450
:103A200004F1430241463846C84701301ED023689E
:103A3000226903F00603042B02BFE5683368ED1A20
:103A4000A3680CBF25EAE57500259342C4BF9B1A05
:103A5000ED1800261A34B5421AD1002008E00123DF
:103A6000524641463846C847013003D14FF0FF3037
:103A7000BDE8F0870135C6E7E1185A1C302081F80F
:103A80004300224494F8451082F843100233C7E7FC
:103A90000123224641463846C8470130E6D0013668
:103AA000D9E700002DE9FF470F7E0C9E782F914645
:103AB00080460C469A4601F1430207D8622F0AD885
:103AC000002F00F0D280582F00F0B98004F1420698
:103AD00084F842703AE0A7F16303152BF6D801A1F0
:103AE00051F823F03D3B0008513B0008CD3A000857
:103AF000CD3A0008CD3A0008CD3A0008513B000805
:103B0000CD3A0008CD3A0008CD3A0008CD3A000879
:103B1000513C00087B3B00080B3C0008CD3A0008F4
:103B2000CD3A0008733C0008CD3A00087B3B000802
:103B3000CD3A0008CD3A0008133C000833681A1D3E
:103B40001B68326004F1420684F8423001239DE094
:103B500033682068191D3160060601D51D6803E031
:103B60004506FBD5B3F90050002D03DA2D236D4235
:103B700084F8433059480A2311E021683368080665
:103B800053F8045B02D4490648BFADB26F2F5348C7
:103B9000336014BF0A230823002184F843106668A9
:103BA000A660002EA2BF216821F0040121600DB99A
:103BB000002E4BD01646B5FBF3F103FB1157C75D42
:103BC00006F8017D2F46BB420D46F4D9082B0BD1D8
:103BD0002368DF0708D5236961689942DEBF302377
:103BE00006F8013C06F1FF36921B2261CDF800A0D9
:103BF0004B4603AA21464046FFF7E6FE01304AD174
:103C00004FF0FF3004B0BDE8F087236843F0200395
:103C100023603348782784F84570236831681F068D
:103C200051F8045B02D45F0648BFADB23160D907DA
:103C300044BF43F0200323601DB11023ACE72748A5
:103C4000E9E7236823F020032360F6E71646BDE783
:103C5000336825686169181D30602E061B6801D520
:103C6000196002E06806FBD519800023236116461F
:103C7000BCE733681A1D32601E6862680021304656
:103C8000FCF77EFA08B1801B606063682361002343
:103C900084F84330AAE72369324649464046D04774
:103CA0000130ADD023689B0713D4E068039B984292
:103CB000B8BF1846A6E70123324649464046D047DA
:103CC00001309DD00135E36803995B1AAB42F2DC09
:103CD000EBE7002504F11906F5E700BFA14700084E
:103CE000B2470008B1F90C20F8B5160705460C4696
:103CF00054D44B68002B02DC0B6C002B48DDE66AC9
:103D0000002E45D0002312F480522F68216A2B60C8
:103D100030D0626DA389590705D56368D21A636BE9
:103D20000BB1236CD21A0023E66A216A2846B047F9
:103D3000431CA38906D129681D292BD8284A0A418A
:103D4000D60727D400226260D9042269226004D5F4
:103D5000421C01D12B6803B96065616B2F60B9B15A
:103D600004F14403994202D02846FFF7F5FB0023F3
:103D700063630DE001232846B0470246501CC9D1B9
:103D80002B68002BC6D01D2B01D0162B1DD12F6008
:103D9000002021E043F040031BB21AE00F69002F1E
:103DA000F6D093070E6808BF4B690F6018BF002359
:103DB000F61B8B60002EEBDD216AD4F828C0334659
:103DC0003A462846E047002807DCB4F90C3043F0B7
:103DD0004003A3814FF0FF30F8BD0744361AE9E7EE
:103DE000FEFFBFDF38B50B6905460C4613B9002549
:103DF000284638BD18B1036A0BB9FFF79DF9B4F92D
:103E00000C30002BF3D0626ED00704D4990502D495
:103E1000A06DFFF790FB28462146FFF763FF636E16
:103E2000DA070546E4D4A3899B05E1D4A06DFFF72A
:103E300083FBDDE770B50C46B1F90E10002996B092
:103E400015461E460DDAA38913F0800F4FF00001CE
:103E500014BF40234FF48063002031602B6016B004
:103E600070BD6A4600F07CF80028ECDB019901F493
:103E70007041A1F50053594259414FF48063EBE77B
:103E80008B89F7B59D0706460C4607D504F1470315
:103E9000236023610123636103B0F0BD01AB6A4677
:103EA000FFF7C8FF009F054639463046FFF7C0FBC5
:103EB00048B9B4F90C309A05EED423F0030343F06B
:103EC0000203A381E2E7A389206043F08003A3817A
:103ED000019BC4E904075BB1B4F90E10304600F051
:103EE00051F828B1A38923F0030343F00103A38110
:103EF000A3891D43A581CFE770B50D46144606463C
:103F000018B1036A0BB9FFF717F9636ED80705D428
:103F1000A389990502D4A06DFFF70DFBA368013BAF
:103F2000002BA36005DAA269934212DBEBB20A2BE5
:103F30000FD023685A1C22601D70EDB2636EDA0741
:103F400005D4A3899B0502D4A06DFFF7F5FA284696
:103F500070BD294622463046FFF7DFF90546EDE7FA
:103F600038B5074D00230446084611462B60FDF77F
:103F70004AF9431C02D12B6803B1236038BD00BF4E
:103F80009807002038B5064D0023044608462B60EC
:103F9000FDF73EF9431C02D12B6803B1236038BD05
:103FA0009807002038B5064D0023044608462B60CC
:103FB000FDF732F9431C02D12B6803B1236038BDF1
:103FC00098070020F8B500BFF8BC08BC9E467047B3
:0C3FD000F8B500BFF8BC08BC9E46704766
:103FDC000000000001000000020000004661696C56
:103FEC00656420546F20756E6C6F636B2020746851
:103FFC006520466C617368004661696C6564204895
:10400C00414C5F464C41534845785F45726173653E
:10401C000D004461746120466C61736820457261C7
:10402C00736520446F6E650D004661696C65642094
:10403C004461746120464C4153480D004661696CE3
:10404C006564204461746120464C415348204D61A5
:10405C0078207472790D004461746120466C617330
:10406C0068204661696C65640D004661696C656425
:10407C0020546F206C6F636B202074686520466C35
:10408C006173680077723A204661696C65642074CC
:10409C006F20554E6C6F61636B2074686520666C85
:1040AC0061736800436F6E66696775726174696FDE
:1040BC006E20466C61736820457261736520457291
:1040CC00726F720D00436F6E666967757261746909
:1040DC006F6E20466C617368205772697465204559
:1040EC0072726F720D0057723A204661696C65648A
:1040FC0020746F20666C6173682074686520636F30
:10410C006E6669670D0077723A204661696C65646A
:10411C0020746F206C6F61636B2074686520666C13
:10412C006173680057616974696E6720666F7220ED
:10413C00746865204F544120646174612E2E2E0DDD
:10414C0000496E204F54415F526563656976696E14
:10415C00675F4368756E6B2046556E6374696F6E4E
:10416C00204F54415F5374617475732025640D0A9C
:10417C00004368756E6B277320435243206D69733F
:10418C006D61746368205B43616C20435243203D36
:10419C002030782530386C585D205B5265632043A5
:1041AC005243203D2030782530386C585D0D0A0084
:1041BC005265636569766564206D6F726520646114
:1041CC007461207468616E206578706563746564D1
:1041DC002E204578706563746564203D2025642C21
:1041EC00205265636569766564203D2025640D0A5F
:1041FC00004F54415F56616C75655F535441544593
:10420C005F49444C452E2E2E0D0052656365697630
:10421C006564204F544120535441525420436F6DD8
:10422C006D616E640D005265636569766564204F3F
:10423C005441204865616465722E204657205369AD
:10424C007A65203D20256C752C20435243203D255A
:10425C0030386C58200D0A00436F6E6669675F57E3
:10426C0072697465206572726F72005B256C642FC5
:10427C00256C645D0D0A0057616974696E67204690
:10428C006F7220454E4420436F6D6D616E640D005E
:10429C00466C6173685F5772697465206572726FE2
:1042AC0072007061636B65745F7479706520657200
:1042BC00726F72005265636569766564204F544174
:1042CC0020454E4420436F6D6D616E640D00566148
:1042DC006C69646174696E672074686520726563CB
:1042EC0065697665642042696E6172792E2E2E0D99
:1042FC00004552524F523A20465720435243204DCC
:10430C0069736D617463682063616C5F63726320B1
:10431C003D202530386C582C4F54415F46775F4315
:10432C005243203D202530386C580D0A00446F6EE6
:10433C00652121210D00436F6E66696720557064FD
:10434C00617465640D00436F6E6669672055706417
:10435C0061746564206661696C65640D004E6F74F0
:10436C002056616C696420434D4420696E2074684A
:10437C006520454E442053544154450D004E6F74F6
:10438C002056616C6964207061636B65745F74792D
:10439C00706520696E2074686520454E4420535426
:1043AC004154450D004F54415F56616C75655F4635
:1043BC00756E5F4552520D00726563656976656472
:1043CC002064617461206E6F742076616C69642066
:1043DC000D0053656E64696E67204E41434B0D00B2
:1043EC0053656E64696E672041434B0D004C6F61E1
:1043FC0064696E67204170706C69636174696F6E7B
:10440C000D00310066775F637263203D20256C756B
:10441C002066775F73697A65203D20256C752000D6
:10442C00566572696679696E67207468652041709B
:10443C00706C69636174696F6E2E2E2E003200539E
:10444C006C6F6174464C4153485F42415345204365
:10445C005243203D20256C750A00093C3C204C6FD2
:10446C00616420746865206E6577206669726D776B
:10447C0061726520746F20617070277320666C61A7
:10448C0073682061646472657373203E3E004170F2
:10449C007020466C61736820777269746520457270
:1044AC00726F720D0041707020466C6173682077DA
:1044BC007269746520446F6E655C7200436F6E6642
:1044CC00696720466C617368207772697465204552
:1044DC0072726F720D00435243206D69736D61747B
:1044EC00636800330034004170706C464C41534893
:1044FC005F4241534520435243203D20256C750AB1
:10450C00003500496E76616C6964204170706C698D
:10451C00636174696F6E2E2048414C542121210D2A
:10452C000053656E64696E672074686520414B4C5E
:10453C0020666F72204F544120496E74696D61740E
:10454C0065640D0053656E64696E67207468652040
:10455C00414B4C20666F72204F544120496E746958
:10456C006D6174656420646F6E650D0053746172C7
:10457C0074696E6720426F6F744C6F61646572284A
:10458C002564290D0A0052656164696E67207468A0
:10459C0065207265626F6F7420726561736F6E2E29
:1045AC002E2E0D004E6F726D616C20426F6F740D6C
:1045BC000046697273742074696D6520626F6F7444
:1045CC00202F204F544120526571756573742E2E27
:1045DC002E0D00476F696E6720746F204F54412079
:1045EC006D6F64652E2E2E0D00436F6E6669675FCE
:1045FC005772697465206572726F720D004F544169
:10460C0020526571756573742056657269666965AB
:10461C0064205265626F6F74696E672121210D00F1
:10462C005374617274696E67204669726D7761723A
:10463C006520446F776E6C6F61642121210D004FF2
:10464C00544120557064617465203A204552524F94
:10465C00522121210D004669726D776172652075BA
:10466C00706461746520697320646F6E652121210B
:10467C00205265626F6F74696E672E2E2E0D004787
:10468C006F6E6E61204A756D7020746F2041707072
:10469C006C69636174696F6E20253038580D0A009F
:1046AC00476F6E6E61204A756D7020746F2041707B
:1046BC00706C69636174696F6E310D00A0860100C6
:1046CC00400D0300801A060000350C0040420F001C
:1046DC0080841E0000093D0000127A000024F400C2
:1046EC0000366E010048E801006CDC02000000009E
:1046FC0000000000000000000000000000000000AE
:10470C00000000000000000000000000010000009C
:10471C000200000003000000040000000100000083
:10472C000300000005000000010000000100000073
:10473C00060000000A00000020000000020000003B
:10474C000400000008000000100000004000000001
:10475C0080000000000100000002000001000200C7
:10476C000400060008000A000C00100020004000A5
:10477C008000000108040204080101010101010389
:10478C0007010000232D302B2000686C4C0065665F
:10479C006745464700303132333435363738394186
:1047AC00424344454600303132333435363738399C
:0847BC006162636465660000A0
:0847C400BCB9FF7F01000000F9
:0447CC00650100087B
:0447D000410100089B
:1047D40000A800080200000000093D0001000000DC
:1047E4001000000000000000030000005C06002030
:1047F40024000020000000005C060020C406002005
:104804002C07002000000000000000000000000051
:104814000000000000000000000000000000000094
:104824000000000000000000000000000000000084
:104834000000000000000000000000000000000074
:040000050800125D80
:00000001FF
