:020000040800F2
:10000000000001209D0C0008E90B0008EB0B000824
:10001000ED0B0008EF0B0008F10B000800000000DA
:10002000000000000000000000000000F30B0008CA
:10003000F50B000800000000F70B0008F90B0008A2
:10004000ED0C0008ED0C0008ED0C0008ED0C0008AC
:10005000ED0C0008ED0C0008ED0C0008ED0C00089C
:10006000ED0C0008ED0C0008ED0C0008ED0C00088C
:10007000ED0C0008ED0C0008ED0C0008ED0C00087C
:10008000ED0C0008ED0C0008ED0C0008ED0C00086C
:1000900000000000ED0C0008ED0C0008ED0C00085D
:1000A000FD0B0008ED0C0008ED0C0008ED0C00083D
:1000B000ED0C0008ED0C0008ED0C0008ED0C00083C
:1000C000ED0C0008ED0C0008ED0C0008ED0C00082C
:1000D000ED0C0008ED0C0008ED0C0008ED0C00081C
:1000E000ED0C0008ED0C0008ED0C0008ED0C00080C
:1000F000ED0C00080000000000000000ED0C0008FE
:10010000ED0C0008ED0C0008ED0C0008ED0C0008EB
:10011000ED0C0008ED0C0008ED0C0008ED0C0008DB
:10012000ED0C0008ED0C0008ED0C0008ED0C0008CB
:08013000ED0C0008ED0C0008C5
:1001400010B5054C237833B9044B13B10448AFF311
:1001500000800123237010BD70000020000000000B
:10016000EC38000808B5034B1BB103490348AFF353
:10017000008008BD0000000074000020EC3800087A
:1001800001F0FF01102A2BDB10F0070F08D010F848
:10019000013B013A8B422DD010F0070F42B3F6D14C
:1001A000F0B441EA012141EA014122F007047FF065
:1001B00000070023F0E80256083C85EA010586EABC
:1001C000010685FA47F5A3FA87F586FA47F6A5FAF8
:1001D00087F68EB9EED1F0BC01F0FF0102F0070204
:1001E00032B110F8013B013A83EA010313B1F8D1AF
:1001F0000020704701387047002D06BF3546033890
:10020000073815F0010F07D1013015F4807F02BFC8
:10021000013015F4C03F0130F0BC0138704700BF19
:1002200053B94AB9002908BF00281CBF4FF0FF315D
:100230004FF0FF3000F088B9ADF1080C6DE904CE45
:1002400000F006F8DDF804E0DDE9022304B07047B1
:100250002DE9F047089D8E4604468846002B4AD17A
:100260008A42174662D9B2FA82F64EB1C6F120032D
:1002700001FA06F820FA03F3B74043EA0808B4404D
:100280004FEA174E1FFA87FCB8FBFEF1230C0EFB5A
:10029000118843EA084301FB0CF29A4209D9FB1882
:1002A00001F1FF3080F0EA809A4240F2E7800239A3
:1002B0003B449A1AA3B2B2FBFEF00EFB102243EAB3
:1002C000024300FB0CFC9C4509D9FB1800F1FF32EE
:1002D00080F0D6809C4540F2D3803B44023840EA0F
:1002E0000140A3EB0C0300211DB1F3400022C5E93E
:1002F0000032BDE8F0878B4205D90DB1C5E9000198
:1003000000210846F5E7B3FA83F1002946D1734589
:1003100002D3824200F20581841A6EEB03020120AF
:100320009046002DE5D0C5E90048E2E7002A00F03C
:100330009080B2FA82F6002E40F0A4808A1A030C54
:100340004FEA174E80B2BCB20121B2FBFEFC0EFB9D
:100350001C2243EA024304FB0CF29A4207D9FB1821
:100360000CF1FF3802D29A4200F2E080C4469B1A98
:10037000B3FBFEF20EFB123340EA034302FB04F42C
:100380009C4207D9FB1802F1FF3002D29C4200F2D6
:10039000CA8002461B1B42EA0C40A5E7C1F12006B9
:1003A0008B4022FA06F71F430EFA01F420FA06F3F7
:1003B0002EFA06FE4FEA1749234300FA01F81FFA06
:1003C00087FCBEFBF9F01C0C09FB10EE44EA0E445E
:1003D00000FB0CFEA64502FA01F209D93C1900F116
:1003E000FF3A80F09C80A64540F2998002383C4458
:1003F000A4EB0E041FFA83FEB4FBF9F309FB1344CC
:100400004EEA044403FB0CFCA44508D93C1903F153
:10041000FF3E80F08280A4457FD9023B3C4443EA02
:100420000040A4EB0C04A0FB02EC64457346E146DB
:1004300062D35FD05DB1B8EB030264EB090404FA48
:1004400006F622FA01F31E43CC40C5E90064002100
:100450004FE7B1FBF2FC010C41EA0E4180B240EAE9
:1004600001423B4638463C46B846BE462026B1FBD4
:10047000F7F1A2EB080241EA0C4166E7014618E7F2
:1004800010462CE7C6F120022EFA02F3B740B14025
:1004900020FA02F24FEA174E0A43B3FBFEF8BCB251
:1004A0000EFB1833110C41EA034108FB04F9B0407C
:1004B00089454FEA104380B23ED9791808F1FF3CD4
:1004C00001D289451FD8A1EB0901B1FBFEF909FB57
:1004D00004F80EFB191192B242EA0142424529D2B8
:1004E000BA1809F1FF31C4D24245C2D2A9F10201C2
:1004F0003A44BEE7F0459DD2BEEB02036CEB070C1D
:100500000138E14696E7A7EB09094944A8F1020C36
:10051000B1FBFEF909FB04F8DBE773467FE75046C1
:1005200066E70846FDE63B44023A33E7ACF1020CCD
:100530003B441CE749469CE7A1EB0901C446B1FBDB
:10054000FEF909FB04F8C4E7704700BF07B54FF494
:100550007A730190012201A9034802F0C1F80198C1
:1005600003B05DF804FB00BF9000002000B59BB015
:100570004422002109A802F0FBFB1822002102A856
:1005800002F0F6FB154A136823F4C06343F40073CA
:100590001360136803F4C0630193019B2023089345
:1005A00001210023B02208A8CDE91013CDE91223C0
:1005B00001F0C8F808B172B6FEE74F23CDE902306A
:1005C000CDE90400CDE90600022102A801F054FBA8
:1005D00008B172B6FEE71BB05DF804FB00040058DA
:1005E00008B50D4800F0A4FC0C4801F094FE4FF053
:1005F000B043DA6C22F00102DA64DA6C22F0020213
:10060000DA6400F0A7FF00F073FB4FF0E023002254
:100610001A615A619A6108BD2401002090000020EF
:100620002DE9F04F1D1E1646364B374A87B08246DD
:1006300088460CBF9146994600F0F6FC044618B176
:10064000324802F0B5FA59E0B6B1002D14BF1622B7
:100650004B224FF00201CDE9021214BF352334239F
:1006600001A902A8049300F071FD044608B12848CE
:10067000E7E7284802F09CFADFF89CB0002422E06B
:100680000026A8EB0407082F4FF0FF3228BF0827E9
:100690004FF0FF33CDE902230AEB04013A4602A8EA
:1006A00002F0E1FBBDB9DBF80010DDE902234944AB
:1006B000012000F005FD98B93C4425B9DBF8003075
:1006C0003B44CBF800304445DAD300F0BFFC04468D
:1006D000A0B11248B5E7DDE9022309EB0401E7E721
:1006E00001360F48B6B202F063FA0A2EC9D10D489E
:1006F00002F05EFA0C4802F05BFA0124204607B0D3
:10070000BDE8F08F00B0000800580208103900085A
:100710002C390008463900088C0000209E3900085A
:100720005D390008703900088B3900082DE9F04167
:10073000804688B0002843D000F076FC044630B1F3
:10074000204802F035FA204608B0BDE8F0810222C8
:100750001523CDE9052301A9012305A8079300F07E
:10076000F5FC044608B11848EBE705464FF0FF36A4
:100770004FF0FF37C5F11A02082A28BF082208EBFC
:10078000050102A8CDE9026702F06DFB05F10061E9
:10079000DDE9022301F52841012000F091FC044627
:1007A00020B10A4802F004FA0948CAE70835202DAA
:1007B000E0D100F04BFC04460028C4D00548C0E757
:1007C0000124C0E7B8390008D8390008F939000811
:1007D0001A3A00083A3A000870B54A4888B002F060
:1007E000E7F9494B1B6801AA03F11806154618687A
:1007F0005968144603C40833B3422246F7D11B8814
:100800002380424802F0D4F9DDF80A20DDF80E100A
:100810003F4802F05DF99DF80930012B38D13D4881
:1008200002F056F941F2883000F01CFC3A4802F020
:10083000BFF9DDF80A20394B9A425AD8384939486D
:1008400000F08FFB04460146374802F041F941F2BF
:10085000883000F007FCDDF80E30A3424DD133485C
:1008600002F0A6F90123DDF80A102D481A46FFF719
:10087000D7FE00283FD02E4802F09AF900232846E0
:100880008DF80930FFF752FF10B12A4802F090F9B5
:10089000294802F08DF91F4802F01AF942F210704F
:1008A00000F0E0FB254802F083F9DDF80A201B4B3D
:1008B0009A4224D822491B4800F053FB04460146C3
:1008C000204802F005F942F2107000F0CBFB1E4800
:1008D00002F06EF9DDF80E30A34205D01B4802F09D
:1008E00067F91B4802F064F91A4802F061F908B090
:1008F00070BD0024ABE71848BEE71848C6E70024DF
:10090000E1E700BF583A0008000000206D3A0008F7
:100910006F3A00088B3A0008A83A00080F9E0100C1
:100920000058020824010020AA3A0008C53A00082D
:10093000F93A0008273B00084E3B0008503B0008EE
:1009400000B00008523B00086C3B00086E3B0008FA
:10095000783B0008963B0008103B0008413B00082C
:1009600007B500F0EBF9FFF701FE4FF0B0432F4C55
:10097000DA6C42F00102DA64DB6C2D4A03F0010309
:100980000193019B4FF4E133C4E900232046002387
:100990000C22C4E90233C4E90523C4E90733C4E9DE
:1009A0000933236101F023FF014608B172B6FEE767
:1009B000204601F08AFF014608B172B6FEE72046E4
:1009C00001F0A3FF08B172B6FEE7204601F062FF16
:1009D000034608B172B6FEE71648174A8380C0E99D
:1009E000053301230260036200F068FA08B172B6B1
:1009F000FEE7124B124C1978124802F069F81248BF
:100A000002F0D6F8FFF7E8FE2146104802F060F841
:100A10000F4802F0CDF8FFF7E3FD236883F3088861
:100A2000636898473E2002F065F8FBE790000020DD
:100A30000044004024010020003002400400002057
:100A400000B000089F3B0008B93B0008D73B0008F6
:100A5000F83B00080268034B9A4201D100F084B9C8
:100A6000704700BF002C014072B6FEE770470000DF
:100A70000268084B9A4282B00AD14FF0B0439A6C98
:100A800042F480529A649B6C03F480530193019B5F
:100A900002B07047003002400268054B9A4201BF25
:100AA0004FF0B042936C23F480539364704700BFBF
:100AB0000030024010B596B004461422002103A86D
:100AC00002F056F93822002108A802F051F92268F4
:100AD000184B9A422CD10223089308A84FF44023C4
:100AE0000A9301F00FFA08B1FFF7BEFF4FF0B043D1
:100AF00003A99A6D42F400329A659A6D02F40032AD
:100B00000292029ADA6C42F00102DA64DB6C03F0C2
:100B100001030193019B0C220223CDE9032300234F
:100B2000CDE905334FF090400723079300F05CFBBD
:100B300016B010BD004400400268074B9A420AD12B
:100B40004FF0B0420C21936D23F4003393654FF0C6
:100B5000904000F0F5BB70470044004070B54FF086
:100B6000B04388B01A6E1C4D42F400621A661B6EC8
:100B700003F4006369460193064602A8019B01F055
:100B80007BF901F069F9154B2B6040F2E733EB601C
:100B9000134BB0FBF3F001380023686028462B614B
:100BA000AB6001F085FB044680B9284601F07AFA73
:100BB000044658B9182000F02DF90F2E09D8224606
:100BC0003146182000F0F4F8064B1E60204608B0AD
:100BD00070BD0124FAE700BF48010020002C01404D
:100BE00040420F0010000020FEE7FEE7FEE7FEE7B0
:100BF000FEE770477047704770470000014801F0FA
:100C00007BBA00BF4801002070B50D4614460E4661
:100C1000731B9C4201DC204670BDAFF3008006F8D8
:100C2000010BF5E770B50D4614460E46731B9C424A
:100C300001DC204670BD16F8010BFFF787FCF5E7D5
:100C40004FF0FF3070474FF400534B600020704767
:100C500001207047002070470B4A116810B5034609
:100C600009B90A491160106809490A4C0344091B73
:100C70008B4206D902F0CAF80C2303604FF0FF3014
:100C800010BD1360FCE700BF9401002000030020AA
:100C90000000012000040000704700000D48854658
:100CA000FFF7FAFF0C480D490D4A002302E0D45823
:100CB000C4500433C4188C42F9D30A4A0A4C0023A6
:100CC00001E013600432A242FBD302F0A5F8FFF763
:100CD00047FEFEE700000120000000207000002019
:100CE000203D00087000002000030020FEE7704750
:100CF0004FF0B04310B59A6B4FF0FF329A63D96B47
:100D0000DA630024996B9C63D96BDC63196C1A64F9
:100D1000196C1C64596C5A64596C5C64996A9A62C7
:100D2000996A9C62D96ADA62D96ADC62196B1A63C1
:100D30001A6B1C63FFF7DBFF204610BD10B50320C4
:100D400000F024F800F0EEFC064B18600F20FFF7CF
:100D500005FF044618B9FFF789FE204610BD01249F
:100D6000FBE700BF08000020034A044B11681B7812
:100D70000B441360704700BF980100200C00002056
:100D8000014B1868704700BF980100200749CA68E6
:100D900022F4E0620302120403F4E063120C134332
:100DA00043F0BF6343F40033CB60704700ED00E0D5
:100DB000164B30B5DC68C4F30224C4F10703251DCB
:100DC000042B28BF0423062D4FF0FF358CBF033CB6
:100DD000002405FA03F321EA0303A54022EA0502F1
:100DE000A340002843EA0203ACBF00F16040084A78
:100DF0004FEA0313B8BF00F00F00DBB2AABF00F543
:100E00006140135480F8003330BD00BF00ED00E0B6
:100E100014ED00E0002807DB044A4109012300F03B
:100E20001F00834042F82130704700BF00E100E01E
:100E3000F0B522F0030605680B4697080E44B3424E
:100E40000AD112F0030204D0012A11F8274014D16C
:100E50002C7003681868F0BD5C7893F800C0240417
:100E600044EA0C6493F803C044EA0C0493F802C00B
:100E700044EA0C242C600433E1E7597841EA042168
:100E80002980022A1CBF9B782B70E2E70068F0B52E
:100E9000002355088E1C9D4206D1D30744BF31F86C
:100EA000253003800068F0BD31F8237036F8234008
:100EB00044EA074404600133EDE7000010B504463E
:100EC00008B9012010BD437F03F0FF0213B9027778
:100ED000FFF7CEFD022363772379E3B92368134A32
:100EE0005A619A6822F018029A6062792368D2B92E
:100EF0004FF0FF321A619A68616922F060020A437A
:100F00009A609A68A16922F080020A439A600123DC
:100F100063770020D6E7D4E90212204600F045F8B6
:100F20000028E2D0CDE72269E4E700BFB71DC10485
:100F300038B5054698B1437F022BDCB20DD00223B1
:100F4000437703689A6842F001029A6000245A6865
:100F50005C60FFF7A1FD6C772C77204638BD01243B
:100F6000FBE7F8B5022646770668B76847F0010741
:100F7000B760076A022F044614D0032F05D0012F53
:100F80000DD0002001236377F8BD01EB8205A94253
:100F900001D13068F6E751F8043B3360F7E7FFF71B
:100FA00047FFEFE7FFF772FFECE7CB0710B50DD572
:100FB0001F23013B1DD321FA03F4E407F9D5102ABE
:100FC00013D0102A04D83AB1082A10D001200BE01F
:100FD000182AFBD1062BF9D800684161836823F0F9
:100FE000180313438360002010BD072BF3E70F2B7A
:100FF000F1E7102AE5D1E9E70A4A536943F480236F
:1010000030B55361EFF3108472B60023CD58C5504C
:101010000433B3F5807FF9D11369DB03FCD484F387
:10102000108830BD00400058064B5A69002ABFBFE7
:10103000054A9A6002F188329A60BABF5869C00FB7
:10104000002070470040005823016745044B5A694F
:1010500042F000425A615869C043C00F704700BF58
:101060000040005870B50546FFF78AFE124E044650
:101070003369D90313D43369DA0744BF01223261DB
:101080004CF2FA32134011D10B4E306910F480202B
:101090000BD0FFF775FE001BA842F6D304E0FFF764
:1010A0006FFE001BA842E3D3032070BD024A136108
:1010B000024A01205360F8E7004000589C010020DC
:1010C0002DE9F041184D98462B78012B06460C4629
:1010D000174626D001232B704FF47A7000236B60E3
:1010E000FFF7C0FFA0B9012E16D1104A536943F093
:1010F000010353612760BFF36F8FC4F804804FF47E
:101100007A70FFF7AFFF094A536923EA0603536178
:1011100000232B70BDE8F08139462046FFF76CFFB5
:10112000EDE70220F6E700BF9C01002000400058D8
:10113000054A536923F47E7343EAC00040F48030CB
:1011400040F0020050617047004000582DE9F04126
:10115000234F3B78012B054688463FD001233B7047
:101160004FF47A7000237B60FFF77CFF044688B958
:101170002B68042B13D11B4A536943F4803343F08B
:10118000040353614FF47A70FFF76CFF0446154B6C
:101190001A681B6800233B702046BDE8F0814FF0C1
:1011A000FF33C8F800306E68D5E901321344B3420A
:1011B0000AD93046FFF7BCFF4FF47A70FFF752FFB1
:1011C00050B1C8F800600446064A536923F47E73A0
:1011D00023F002035361DAE70136E5E70224DBE797
:1011E0009C010020004000582DE9F04F524C002394
:1011F0004FF00F090A6832FA03F501D1BDE8F08F0C
:10120000012505FA03F818EA020200F08E804E6804
:10121000032706F003054FEA430E07FA0EFC6F1E84
:10122000012F6FEA0C0C32D8876807EA0C0ACF68E6
:1012300007FA0EF747EA0A078760476827EA0808AF
:10124000C6F300179F4047EA08074760C76807EAE8
:101250000C088F6807FA0EF747EA0807022DC760E7
:1012600017D14FEAD30800EB880803F0070AD8F833
:1012700020704FEA8A0A09FA0AFB27EA0B0B0F696A
:1012800007FA0AF747EA0B07C8F8207001E0032DB8
:10129000DCD1076805FA0EF507EA0C073D4316F4A2
:1012A000403F056041D023F0030707F1804707F571
:1012B000803703F0030CBD684FEA8C0C4FF0070E2B
:1012C0000EFA0CFEB0F1904F25EA0E0E2FD01B4DFA
:1012D000A8422ED005F58065A84214BF0725022537
:1012E00005FA0CF545EA0E05BD602568D74316F4EE
:1012F000801F0CBF3D4015432560656816F4001F34
:101300000CBF3D4015436560D4F8805016F4803F13
:101310000CBF3D401543C4F88050D4F88450B60348
:1013200054BF3D401543C4F88450013362E70025A3
:10133000D6E70125D4E700BF0008005800040048A4
:10134000374A2DE9F04F00234FF0010A4FF0070B09
:101350004FF00F0931FA03F401D1BDE8F08F0AFA1A
:1013600003FC1CEA010654D023F0030404F180447A
:1013700004F5803403F00307A568BF000BFA07F8F3
:10138000B0F1904F08EA050E45D0264DA84244D052
:1013900005F58065A84214BF07250225BD407545A7
:1013A00017D1D2F8805025EA0605C2F88050D2F84D
:1013B000845025EA0605C2F88450156825EA06051A
:1013C0001560556825EA06055560A56825EA0805F3
:1013D000A560056803265C0006FA04F423FA06F605
:1013E000254300EB8606056003F00705376AAD006C
:1013F00009FA05F527EA05073762856825EA040535
:101400008560456825EA0C054560C56825EA040441
:10141000C46001339EE70025C0E70125BEE700BF99
:101420000008005800040048024A136843F480731F
:101430001360704700040058024B186800F4C06045
:10144000704700BF000400584FF0B0431868C0F365
:10145000404070474FF0B0431868C0F340007047F9
:101460004FF0B042536823F47F4343EA00235360B4
:1014700070474FF0B0431868C0F3406070470000F9
:101480007FB54FF0B0432C4AD3F80831C0F30310B6
:1014900003F00F0352F82040284A52F82330B4FBDF
:1014A000F3F4FFF7C9FF264B054693E80700B5F5AF
:1014B000007F04AB03E9070010D0224B9C4218D3F5
:1014C00003F5B70303F67F539C4229D903F5741340
:1014D00003F510639C4225D802230BE01A4B9C4273
:1014E00007D91A4B9C421BD903F5370303F5D85390
:1014F000F0E7002304AA02EB830353F80C4C144DCD
:101500002B6823F0070323432B60FFF739FC0646C3
:101510002B6803F007039C4206D1002004B070BD85
:101520000123E7E70024EAE7FFF72AFC801B0228F3
:10153000EED90320F2E700BF483C0008A83C0008B1
:1015400004390008C0CF6A00BFEA21013F9334028A
:101550000040005870B5FFF713FC4FF0B04204464E
:10156000136843F001031360FFF774FF002848D0AD
:101570004FF0B0440020236823F0F00343F06003F1
:101580002360FFF76DFF636823F0FE4343F0804361
:101590006360FFF7F5FB00230546A36041F2883640
:1015A000A36813F00C0F33D12268224B1340236041
:1015B000FFF7E6FB0446FFF747FF78BB4FF0B0426A
:1015C000136823F400131360FFF7DAFB0446FFF7F8
:1015D00050FF48BB4FF0B043174ADA604FF0FF327C
:1015E00098611A624FF44032C3F80821134B144A31
:1015F0001A60144B1868FFF7B1FA003818BF0120C1
:1016000005E0FFF7BDFB001B0228ADD9032070BD2C
:10161000FFF7B6FB401BB042C2D9F7E7FFF7B0FBBC
:10162000001B6428C7D9F1E7FFF7AAFB001B0A28B3
:10163000CDD9EBE7FFF4EEFE000104220800002004
:1016400000093D00100000204FF0B04310B59A682B
:10165000D96812F00C0205D00C2A4AD101F003031C
:10166000012B50D14FF0B0412B480B6813F0080309
:1016700006D00B6813F0080337D1D1F8941007E0B7
:101680000C68240756BFD1F894300968C3F30323CC
:1016900050F82330002A0CBF184600204FF0B0410C
:1016A0008A6802F00C020C2A1ED1CA6802F00302FA
:1016B000022A2ED0032A06D10B68184A13F4801F81
:1016C000174B08BF13464FF0B042D068D168D268BC
:1016D000C0F306205843C1F302130133B0FBF3F00B
:1016E000530F0133B0FBF3F010BD0B68C3F30313CA
:1016F000CEE7042A0AD0082A05D11B6813F4801308
:1017000004D10648CAE700231846C7E70448002367
:10171000C4E7034BD7E700BF483C00080048E80196
:101720000024F40008B5FFF78FFF4FF0B043044AE0
:101730009B68C3F3031352F82330B0FBF3F008BDEA
:10174000A83C00082DE9F0410446002853D04FF092
:10175000B0439D68DE6803689B0605F00C0506F043
:10176000030668D5026A1DB10C2D46D1012E44D165
:10177000002A40D04FF0B043A16A1A68170756BF3D
:10178000D3F894301B681B0903F0F00399421FD96A
:101790000846FFF775FE00282DD14FF0B0421368C0
:1017A00043F0080313601368A16A23F0F0030B43AE
:1017B0001360606AFFF754FEFFF7B4FFAB4B18608D
:1017C000AB4B1868FFF7CAF9002834D0BDE8F081A8
:1017D0004FF0B042136843F008031360136823F01E
:1017E000F0030B431360606AFFF73AFE0846FFF709
:1017F00047FE0028E0D00120E8E74FF0B043002A80
:1018000054D01A6842F001021A60FFF7B9FA07468D
:10181000FFF720FE002842D04FF0B042136843F09B
:10182000080313601368A16A23F0F0030B431360ED
:10183000606AFFF715FE2368D80748D42368990724
:1018400000F18C8023681E0740F1FA80A3694FF0F5
:10185000B046002B00F0E180D6F89430E16903F047
:101860001002914200F0C48003F00302022AC2D0A9
:10187000D80740F1B380D6F8943023F00103C6F8BE
:101880009430FFF77DFA0746D6F89430990740F177
:10189000A580FFF775FAC31B112BF5D904E0FFF7FC
:1018A0006FFAC01B0228B3D903208FE71A6822F011
:1018B00001021A60FFF764FA0746FFF7CBFD002824
:1018C000B9D0FFF75DFAC01B0228F6D9ECE7082D66
:1018D00003D00C2D05D1032E03D16368002BADD1AD
:1018E00089E74FF0B043A1681A6822F480120A43D6
:1018F0001A606268B2F5803F10D11A6842F48032F3
:101900001A60FFF73DFA0746FFF79EFD002895D1C4
:10191000FFF736FAC01B6428F6D9C5E7B2F5041FF5
:1019200004D11A6842F400121A60E6E7196821F43B
:1019300080311960196821F400111960002AE0D182
:10194000FFF71EFA0746FFF77FFD00283FF476AF4A
:10195000FFF716FAC01B6428F5D9A5E7042D236903
:1019600003D00C2D0ED1022E0CD1002B3FF443AF2F
:101970004FF0B0426169536823F0FE4343EA0163CC
:1019800053605FE74FF0B046BBB1336843F48073F8
:101990003360FFF7F5F9074633685A0505D4FFF7BA
:1019A000EFF9C31B022BF7D97EE77368626923F056
:1019B000FE4343EA0263736044E7336823F48073B1
:1019C0003360FFF7DDF9074633685B057FF53AAF13
:1019D000FFF7D6F9C31B022BF6D965E74FF0B042EB
:1019E000E169D2F8943023F010030B43C2F894302D
:1019F0004FF0B047D7F8943043F00103C7F8943064
:101A0000FFF7BEF90646D7F894309A0718D4FFF7C7
:101A1000B7F9831B112BF6D946E7D6F8943023F09B
:101A20000103C6F89430FFF7ABF90746D6F89430B7
:101A30009B0705D5FFF7A4F9C31B112BF6D933E794
:101A40002368580754D50B4F3B68D90514D4FFF7CA
:101A5000EBFCFFF795F906463B68DA050CD4FFF777
:101A60008FF9831B022BF7D91EE700BF0800002067
:101A70001000002000040058E3684FF0B046002B2F
:101A800058D023F08003052B02BFD6F8903043F0E6
:101A90000403C6F890304FF0B046FFF771F9D6F85E
:101AA000903043F001030746C6F8903041F2883881
:101AB000D6F890309B0705D4FFF762F9C31B434566
:101AC000F6D9F1E6E36823F00403812B1BD1FFF77D
:101AD00057F9D6F8903043F08003C6F890300746A7
:101AE0004FF0B04641F28838D6F89030180504D54A
:101AF000E36A002B4AD1002068E6FFF741F9C01BDA
:101B00004045F1D9D0E6FFF73BF9D6F8903023F005
:101B10008003C6F8903007464FF0B04641F288384F
:101B2000D6F890301905E3D5FFF72AF9C01B4045D8
:101B3000F6D9B9E6FFF724F9D6F8903023F0800300
:101B40000746C6F8903041F28838D6F890301A052A
:101B500016D4FFF715F9D6F8903023F00103C6F834
:101B6000903007464FF0B04841F28836D8F89030B0
:101B70009B07BDD5FFF704F9C31BB342F6D993E623
:101B8000FFF7FEF8C01B4045DFD98DE60C2D4ED087
:101B9000022B4FF0B0431A6822F080721A6033D1E2
:101BA000FFF7EEF80546FFF764FC38BBD4E90C31CB
:101BB0004FF0B0420B43D0682D4901400B43E16B1D
:101BC0000B43216C0B43616C0B43A16B43EA012374
:101BD000D360136843F080731360D36843F080537D
:101BE000D360FFF7CDF80446FFF743FC002882D10D
:101BF000FFF7C6F8001B0A28F6D955E6FFF7C0F82C
:101C0000401B0A28CFD94FE6FFF7BAF80446FFF782
:101C100030FC30B94FF0B042164BD1680B40D36066
:101C200069E7FFF7ADF8001B0A28F0D93CE6012B65
:101C30003FF4E1AD4FF0B043D868236B00F00302EE
:101C40009A427FF4D8AD626B00F0700393427FF448
:101C5000D2ADA26B00F4FE43B3EB022F7FF4CBAD09
:101C6000636C00F06040C01A18BF0120AEE500BFF1
:101C70008C80C111FCFFFEEE2DE9F0410D460446BB
:101C800010B90120BDE8F081684E336803F0070306
:101C90008B4216D323689A0727D54FF0B047A26826
:101CA000BB6823F0F0031343BB60FFF769F80646F7
:101CB000BB68DB0319D4FFF763F8831B022BF7D94A
:101CC00011E0336823F007030B433360FFF758F844
:101CD0000746336803F00703AB42DBD0FFF750F849
:101CE000C01B0228F5D90320CCE72368580617D576
:101CF0004FF0B0476269D7F8083123F00F0343EA89
:101D00001213C7F80831FFF73BF80646D7F8083139
:101D1000D90305D4FFF734F8831B022BF6D9E2E789
:101D200023685A0713D54FF0B047E268BB6823F425
:101D3000E0631343BB60FFF723F80646BB689B03D1
:101D400005D4FFF71DF8831B022BF7D9CBE72368D7
:101D5000180714D54FF0B0472269BB6823F46053CD
:101D600043EAC203BB60FFF70BF80646BB685903A2
:101D700005D4FFF705F8831B022BF7D9B3E72368D7
:101D8000DA070FD4294C236803F00703AB4239D894
:101D9000FFF7C8FC264B1860264BBDE8F0411868D9
:101DA000FEF7DCBE6268022A1DD1FFF74DFB00285A
:101DB0003FF467AF4FF0B04641F28838B36823F084
:101DC00003031343B360FEF7DBFF0746B3686268A3
:101DD00003F00C03B3EB820FD4D0FEF7D1FFC01B8E
:101DE0004045F3D97FE7032A02D1FFF742FBDEE744
:101DF00012B9FFF72FFBDAE74FF0B0431B685B0522
:101E0000D8D43EE7236823F007032B432360FEF773
:101E1000B7FF0646236803F00703AB42B8D0FEF7CE
:101E2000AFFF801B0228F5D95DE700BF00400058D6
:101E3000080000201000002008B5FFF773FC4FF0E9
:101E4000B043044A9B68C3F3022352F82330D840BE
:101E500008BD00BF883C000808B5FFF763FC4FF0E1
:101E6000B043044A9B68C3F3C22352F82330D840DE
:101E700008BD00BF883C000810B5D8B1D1B14F23D0
:101E80004FF0B0420360936803F00C04446003F029
:101E9000F004846003F4E06403F46053C4600361FD
:101EA000D2F808311B01DBB24361034B1B6803F01E
:101EB00007030B6010BD00BF004000584FF0B04357
:101EC000D3F89000C0F3400070474FF0B0410209D2
:101ED000D1F8883002F47F22000123EA020300F4E3
:101EE0007F200343C1F8883070474FF0B042010CA7
:101EF000D2F88830090423EA010343EA0040C2F81B
:101F0000880070470368DA0370B5044639D5FFF7D7
:101F10008BFAFEF735FF614E05463368DB0532D597
:101F20004FF0B043616BD3F8902002F440729142BD
:101F30001DD0D3F89010D3F8902042F48032C3F82B
:101F40009020D3F8902021F4407022F480328D0745
:101F5000C3F89020C3F8900009D5FEF711FF41F2B5
:101F600088360546FFF7AAFF012840F090804FF021
:101F7000B042616BD2F8903023F440730B43C2F847
:101F80009030002605E0FEF7FBFE401B0228C4D976
:101F900003262568E8070AD54FF0B0416268D1F8FA
:101FA000883023EA124392B21343C1F88830A9075C
:101FB0000AD54FF0B041A268D1F8883023EA124325
:101FC00092B21343C1F88830AA0609D54FF0B04247
:101FD0002169D2F8883023F440630B43C2F888307B
:101FE000AB0502D5206AFFF780FF680502D5606A5D
:101FF000FFF77BFF290502D5A06AFFF776FF6A0687
:1020000002D56069FFF761FF2B0602D5A069FFF7D3
:102010005CFFE80502D5E069FFF757FFE90610D538
:102020004FF0B042E168D2F8883023F440730B439C
:10203000C2F88830B1F5807F02BFD36843F0807367
:10204000D3602A040ED54FF0B042216BD2F888300D
:1020500023F040430B43C2F8883019B9D36843F0EA
:102060008073D3606B0410D54FF0B042E16AD2F8B0
:10207000883023F040530B43B1F1005FC2F8883041
:1020800003D1D36843F48033D360304670BDFEF78C
:1020900077FE401BB0427FF665AF79E70004005839
:1020A0007047000090F83D30012B1BD1022380F8CF
:1020B0003D300368DA6842F00102DA600A4A93426E
:1020C00002D0B3F1804F07D19968084A0A40062A26
:1020D00006D0B2F5803F03D01A6842F001021A60C0
:1020E0000020704701207047002C014007000100CC
:1020F0007047704770477047036870B5DD681E69A8
:10210000B20704460DD5A9070BD56FF002021A617C
:10211000012202779B699A0774D0FFF7EAFF002338
:102120002377730710D568070ED523686FF0040274
:102130001A61022222779B6913F4407F204667D000
:10214000FFF7D7FF0023237731070FD52A070DD5D7
:1021500023686FF008021A6104222277DB699B076B
:1021600020465BD0FFF7C5FF00232377F00610D58C
:10217000E9060ED523686FF010021A610822227753
:10218000DB6913F4407F20464ED0FFF7B2FF0023F7
:102190002377F20708D5EB0706D523686FF0010215
:1021A0001A612046FEF756FC300608D5290606D5EA
:1021B00023686FF080021A61204600F0AAF8F20549
:1021C00008D52B0606D523686FF480721A61204665
:1021D00000F0A0F8700608D5690606D523686FF0F0
:1021E00040021A612046FFF786FFB20622D5AB06F1
:1021F00020D523686FF0200220461A61BDE87040A8
:1022000000F086B8FFF774FF2046FFF773FF86E7FC
:10221000FFF76EFF2046FFF76DFF93E7FFF768FFBC
:102220002046FFF767FF9FE7FFF762FF2046FFF7B3
:1022300061FFACE770BD00001B4A036890420BD001
:10224000B0F1804F08D002F5C052904209D1CA685F
:1022500023F44073134307E04A6823F070031343E9
:10226000F5E7124A9042F2D04A6923F08003134303
:1022700003608B68C3620B6883620B4B984207D084
:1022800003F5C053984203D003F58063984201D10F
:102290000B690363012343610369DB0742BF0369E1
:1022A00023F0010303617047002C01400048014006
:1022B00010B5044650B390F83D3003F0FF021BB94F
:1022C00080F83C20FFF7ECFE0223206884F83D30C4
:1022D000211DFFF7B1FF012384F84830002084F866
:1022E0003E3084F83F3084F8403084F8413084F840
:1022F000423084F8433084F8443084F8453084F820
:10230000463084F8473084F83D3010BD0120FCE7AA
:1023100070477047704738B50546C8B12423C0F8E8
:10232000883003681A68002422F001021A601C60D9
:102330005C609C60FEF700FCC5F8904085F8844026
:10234000C5F888402046C5F88C40EC662C6738BD3F
:102350000120FCE738B50446C0692169A2682368FA
:102360000A4361691D680A437549024329400A43CB
:102370001A605A68E16822F440520A435A60714A6E
:10238000A16993421CBF226A11439A6822F06E42EF
:1023900022F430620A439A60DA6A616A22F00F021C
:1023A0000A43DA62684A934219D14FF0B043674A50
:1023B000D3F8883003F0030343F44033934200F032
:1023C000B780B3F1031F24D0013A934200F0938009
:1023D000B0F5004F00F0B180FFF73EFD96E05C4A9B
:1023E00093421CD14FF0B0435A49D3F8883003F0E0
:1023F0000C0343F440228A4200F09A8006D8002B56
:102400007FD0554B9A4276D001201AE0B2F10C1FD2
:10241000FAD1B0F5004F50D04FF4004078E0494A6F
:102420009342F1D14FF0B043D3F8883003F44063C6
:10243000B3F5006F15D00BD883B9FFF7FDFC88B951
:1024400000204FF00113A3660023C4E91D3338BDFB
:10245000B3F5406FD8D14FF4004003E0FFF7F4F834
:10246000EDE73E4865683E4B626A05EB450133F88F
:102470001220B0FBF2F39942C6D8B3EB053FC3D8A4
:1024800000231946FDF7CCFE090241EA10616B08F2
:102490000002C0182A464FF0000341F10001FDF789
:1024A000BFFE304BA0F540729A42ADD82368D86089
:1024B000C6E7FFF7C1FC0028C2D06168284B626AFA
:1024C00033F81220B0FBF2F24B0803EB42034FF655
:1024D000EF72B3FBF1F3A3F11001914294D823F012
:1024E0000F02216892B2C3F342031343CB60A7E704
:1024F000FFF7AAF80AE0B0F5004FF9D1FFF7A4F80A
:10250000D9E7B0F5004FD4D0FFF796FC002897D05C
:102510006368616A124A32F81120B0FBF2F000EBF6
:102520005300B0FBF3F04FF6EF73A0F11002BBE7DE
:10253000B0F5004F0948EBD1BFE7FFF78DFCBAE7D4
:10254000F369FFCF00800040003801400200030023
:102550000044004008000C0004000C000024F400BB
:10256000E83C0008FFFC0F00836A1A0710B506D587
:102570000168846B4A6822F4004222434A60DC0707
:1025800006D50168C46A4A6822F4003222434A60D0
:10259000990706D50168046B4A6822F48032224309
:1025A0004A605A0706D50168446B4A6822F48022C3
:1025B00022434A60DC0606D50168C46B8A6822F4AF
:1025C000805222438A60990606D50168046C8A68A5
:1025D00022F4005222438A605A060FD50168446CE7
:1025E0004A6822F480122243B4F5801F4A6005D164
:1025F0004A68846C22F4C00222434A601B0606D556
:102600000268C16C536823F400230B43536010BD70
:102610002DE9F843DDF8209005460E46174698460A
:102620002A68D36936EA03030CBF01230023BB42A7
:1026300001D0002029E0B9F1FF3FF2D0FEF7A0FB66
:10264000A0EB080048452C6802D8B9F1000F1ED154
:1026500054E8003F23F4D07344E80032002AF7D155
:1026600004F1080353E8003F23F0010304F10801DB
:1026700041E80032002AF3D12023C5F88830C5F89C
:102680008C30002385F884300320BDE8F88323686C
:102690005A07C5D5802EC3D0402EC1D0E3691B0593
:1026A000BED54FF40063236254E8003F23F4D07397
:1026B00044E80032002AF7D104F1080353E8003F50
:1026C00023F0010304F1080141E80032002AF3D1AC
:1026D0002023C5F88830C5F88C30C5F89030D0E795
:1026E0002DE9F7439846D0F88830202B04460E4653
:1026F000174643D1002943D0002A41D02123002589
:10270000C0F89050C0F88830FEF73AFBA368A4F8F0
:102710005470B3F5805F8146A4F8567003D12369E5
:102720000BB935461E46B4F85620CDF8008092B25B
:102730004B4642B940212046FFF76AFF48B92023A3
:10274000C4F8883006E0002280212046FFF760FFB1
:1027500018B1032003B0BDE8F08322685EB935F8F4
:10276000023BC3F308039362B4F85620013A92B2D5
:10277000A4F85620D7E716F8013BF4E70220E9E772
:102780000120E7E773B504460026C0F89060FEF725
:10279000F7FA23681B681A07054619D423681B68D3
:1027A0005B070AD56FF07E43009300222B464FF45F
:1027B00080012046FFF72CFFB0B900202023C4F889
:1027C000883084F88400C4F88C30E06620670CE020
:1027D0006FF07E430093324603464FF400112046CB
:1027E000FFF716FF0028D9D0032002B070BD10B546
:1027F000044650B3D0F888301BB980F88430FEF717
:1028000059F922682423C4F88830136823F001039F
:102810001360A36A13B12046FFF7A6FE2046FFF718
:1028200099FD012811D023685A6822F490425A6019
:102830009A6822F02A029A601A6842F00102204641
:102840001A60BDE81040FFF79DBF012010BD0000D9
:10285000436E30B52BB90123A0F86A30A0F8683078
:1028600030BD0368094D9A689968094C490FC2F355
:1028700042626B5C615CDB00B3FBF1F3A0F86A3091
:10288000AB5CA25CDB00B3FBF2F3E7E7083D0008BA
:10289000003D000890F88430012B14D002682423F6
:1028A000C0F888301168136823F00103136021F029
:1028B00000510023436611602022C0F8882080F870
:1028C0008430184670470220704770B590F8843005
:1028D000012B044617D005682423C0F888302E68E1
:1028E0002B6823F001032B60AB6823F0604319438E
:1028F000A960FFF7ADFF20232E60C0F888300020CC
:1029000084F8840070BD0220FCE770B590F8843034
:10291000012B044617D005682423C0F888302E68A0
:102920002B6823F001032B60AB6823F0606319432D
:10293000A960FFF78DFF20232E60C0F888300020AB
:1029400084F8840070BD0220FCE70000002310B56D
:102950000446C0E90033C0E90433836081814366E3
:10296000C2818361194608225C3000F001FA0D4BE8
:1029700063620D4BA3620D4BE3620D4B23630D4B62
:1029800024629C4206D003F16802944202D0D03304
:102990009C4205D104F15800BDE8104000F060BA37
:1029A00010BD00BFC12B0008E32B00081B2C000842
:1029B0003F2C0008B4010020024A0349034800F0FC
:1029C00069B800BF140000200D3700082400002063
:1029D00041680C4B994210B5044601D000F096FEB8
:1029E000A168094B994202D0204600F08FFEE168B1
:1029F000064B994204D02046BDE8104000F086BE48
:102A000010BD00BFB40100201C0200208402002081
:102A100010B50B4B0B4C0C4A1A60204600220421C7
:102A2000FFF794FF04F1680001220921FFF78EFFF0
:102A300004F1D0000222BDE810401221FFF786BF4A
:102A4000EC020020B4010020B9290008014800F080
:102A500008BA00BFF5020020014800F003BA00BF29
:102A6000F502002010B50446FFF7F0FF236A1BB102
:102A7000BDE81040FFF7F0BF044B2362044B1B6816
:102A8000002BF5D1FFF7C4FFF2E700BFD129000802
:102A9000EC0200202DE9F84307468846144600263C
:102AA000D4E90195B9F1010905D52468002CF7D1C5
:102AB0003046BDE8F883AB89012B07D9B5F90E3054
:102AC000013303D029463846C04706436835E9E755
:102AD0000FB407B5064904AB086853F8042B8168A6
:102AE000019300F0EFFA03B05DF804EB04B0704717
:102AF00020000020024B01461868826800F090BE5A
:102B000020000020036A70B5846805460E460BB9A4
:102B1000FFF7A8FF636EDB0705D4A389980502D4ED
:102B2000A06D00F09EF9A389190702D52369002B37
:102B300035D12146284600F0C5F880B34FF0FF3567
:102B4000636EDA0705D4A3899B0502D4A06D00F05B
:102B500089F9284670BD002B04DAA2699A4217DC75
:102B60000A2915D023685A1C22601970A36816F828
:102B7000011F013BA3600029EDD1002B11DA224691
:102B80000A21284600F05FF80130D7D00A25D7E7A0
:102B90002246284600F057F80130E7D1CEE7013E43
:102BA000E4E723685A1C22600A221A70EEE700004C
:102BB000024B01461868FFF7A5BF00BF20000020A8
:102BC00010B50C46B1F90E1000F0FCF80028ABBFB0
:102BD000636DA3891B1823F48053ACBF6365A38185
:102BE00010BD2DE9F0411F468B89DB0505460C46DB
:102BF000164605D5B1F90E100223002200F0D0F8D8
:102C0000A389B4F90E1023F48053A38132463B46C6
:102C10002846BDE8F04100F0E7B810B50C46B1F920
:102C20000E1000F0BDF8431CA38915BF606523F4A6
:102C3000805343F48053A38118BFA38110BDB1F921
:102C40000E1000F09DB8F8B50E461446054618B1B2
:102C5000036A0BB9FFF706FFA369A360A3891A07EC
:102C600001D5236943B92146284600F02BF818B155
:102C70004FF0FF373846F8BD23682269981A636918
:102C8000F6B28342374605DC2146284600F03EFD79
:102C90000028EDD1A368013BA36023685A1C226081
:102CA0001E706269431C9A4204D0A389DB07E1D5F8
:102CB0000A2EDFD12146284600F028FD0028D9D071
:102CC000D6E7000038B5294B054618680C4618B100
:102CD000036A0BB9FFF7C6FEB4F90C30190722D40A
:102CE000DA0607D409222A6043F04003A3814FF09B
:102CF000FF3033E0580712D5616B41B104F1440352
:102D0000994202D0284600F0BDF800236363A389EE
:102D100023F02403A3810023636023692360A38934
:102D200043F00803A38123694BB9A38903F42073FB
:102D3000B3F5007F03D02146284600F035FDB4F9F5
:102D40000C3013F001020AD00022A26062695242E4
:102D5000A261226942B913F08000C5D138BD99073C
:102D600058BF6269A260F4E70020F7E72000002066
:102D700002440346934200D1704703F8011BF9E770
:102D800038B5064D0023044608462B60FDF758FF72
:102D9000431C02D12B6803B1236038BDF002002030
:102DA00038B5074D04460846114600222A601A46E7
:102DB000FDF750FF431C02D12B6803B1236038BDDF
:102DC000F002002038B5074D04460846114600229F
:102DD0002A601A46FDF718FF431C02D12B6803B185
:102DE000236038BDF002002038B5074D0446084680
:102DF000114600222A601A46FDF714FF431C02D137
:102E00002B6803B1236038BDF0020020014B186825
:102E1000704700BF2000002070B50D4D0D4C641BA5
:102E2000A4100026A64209D10B4D0C4C00F05EFD0B
:102E3000641BA4100026A64205D170BD55F8043BC2
:102E400098470136EEE755F8043B98470136F2E71C
:102E5000183D0008183D0008183D00081C3D0008FA
:102E60007047704770470A44914200F1FF3300D128
:102E7000704710B511F8014B03F8014F9142F9D199
:102E800010BD000038B50546002941D051F8043C7A
:102E90000C1F002BB8BFE41800F0E0F81D4A1368BF
:102EA00033B9636014602846BDE8384000F0DCB8F0
:102EB000A34208D9206821188B4201BF19685B68BA
:102EC00009182160EDE71A465B680BB1A342FAD9F5
:102ED00011685018A0420BD1206801445018834259
:102EE0001160E0D118685B68536008441060DAE74D
:102EF00002D90C232B60D6E7206821188B4204BF2F
:102F000019685B68636004BF091821605460CAE7F0
:102F100038BD00BFFC02002070B50F4E0C46316872
:102F2000054611B900F0D2FC30602146284600F079
:102F3000CDFC431C03D14FF0FF34204670BDC41CB0
:102F400024F00304A042F8D0211A284600F0BEFC69
:102F50000130F2D1EFE700BFF80200202DE9F8437D
:102F6000CD1C25F0030508350C2D38BF0C25002D90
:102F7000064601DBA94204D90C2333600020BDE8DA
:102F8000F883DFF8D48000F069F8D8F800301C46E8
:102F900044BB29463046FFF7BFFF431C044658D1C7
:102FA000D8F800402746002F43D1002C4BD023688F
:102FB0003946304604EB030900F088FC814542D1D4
:102FC00021686D1A29463046FFF7A6FF01303AD036
:102FD00023682B442360D8F800305A6862BBC8F8D5
:102FE00000700FE02268521B20D40B2A17D96119F8
:102FF000A342256018BF5960636808BFC8F8001075
:1030000062514B60304600F02FF804F10B00231D95
:1030100020F00700C21A1CBF1B1AA350AFE762685A
:10302000A3420CBFC8F800205A60EBE7234664684F
:10303000AEE73C467F68B6E71A465B68A342FBD121
:1030400000235360DEE70C233360304600F00CF8B9
:1030500094E70560D6E700BFFC0200200148FFF7B7
:1030600000BF00BFF40200200148FFF7FBBE00BF15
:10307000F40200209368013B002B10B4936007DA40
:103080009469A34201DB0A2902D110BCFFF7DBBD22
:103090001368581C10601970084610BC7047F8B5CA
:1030A00006460F461446D518AC4201D1002007E071
:1030B00014F8011B3A463046FFF7DCFF431CF3D1FE
:1030C000F8BD00002DE9F04F0D469DB0144698461E
:1030D000064618B1036A0BB9FFF7C4FC6B6ED9073B
:1030E00005D4AB899A0502D4A86DFFF7BAFEAB8967
:1030F0001B0701D52B699BB929463046FFF7E2FD36
:1031000070B16B6EDC0704D54FF0FF301DB0BDE829
:10311000F08FAB899805F7D4A86DFFF7A3FEF3E70E
:103120000023099320238DF82930CDF80C8030231B
:10313000DFF8AC818DF82A304FF0010923469A461A
:1031400013F8012B0AB1252AF9D1BAEB040B0BD0E5
:103150005B46224629463046FFF7A1FF013000F0CA
:10316000A780099A5A4409929AF80030002B00F07F
:103170009F8000234FF0FF32CDE905230AF1010AB9
:10318000049307938DF853301A935446052214F88C
:10319000011B5348FCF7F4FF049AD8B9D10644BF89
:1031A00020238DF85330130744BF2B238DF8533061
:1031B0009AF800302A2B15D0079A544600204FF079
:1031C0000A0C214611F8013B303B092B4BD9B0B119
:1031D000079214E0A0EB080309FA03F313430493E6
:1031E000A246D2E7039B191D1B680391002BBBBFAE
:1031F0005B4242F0020207930793B8BF0492237820
:103200002E2B0AD163782A2B32D1039B1A1D1B68FF
:10321000039243EAE37302340593DFF8C8A02178F0
:1032200003225046FCF7ACFF38B1049BA0EB0A0028
:103230004022824013430134049314F8011B2A48AE
:103240008DF828100622FCF79BFF00283FD0274B63
:103250001BBB039B073323F0070308330393099B2E
:103260003B4409936AE70CFB02320C460120A8E7B5
:1032700000230134059319464FF00A0C204610F83C
:10328000012B303A092A03D9002BC6D00591C4E797
:103290000CFB012104460123F0E703AB00932A460F
:1032A000134B04A93046AFF300800746781CD6D1F3
:1032B0006B6ED90705D4AB899A0502D4A86DFFF7C8
:1032C000D1FDAB895B063FF51FAF09981EE703AB45
:1032D00000932A46064B04A9304600F079F8E4E74B
:1032E000143C00081A3C00081E3C000800000000C6
:1032F0009F3000082DE9F047164698468A680B690A
:10330000DDF820909342B8BF1346336091F8432014
:1033100007460C460AB1013333602368990642BF61
:10332000336802333360256815F0060506D104F1D1
:10333000190AE36832689B1AAB4226DC94F84330E2
:103340002268003B18BF012392062BD404F14302EC
:1033500041463846C84701301ED02368226903F031
:103360000603042B02BFE5683368ED1AA3680CBF9F
:1033700025EAE57500259342C4BF9B1AED18002687
:103380001A34B5421AD1002008E0012352464146C2
:103390003846C847013003D14FF0FF30BDE8F08711
:1033A0000135C6E7E1185A1C302081F84300224459
:1033B00094F8451082F843100233C7E701232246F0
:1033C00041463846C8470130E6D00136D9E700000B
:1033D0002DE9FF470F7E0C9E782F914680460C46C4
:1033E0009A4601F1430207D8622F0AD8002F00F055
:1033F000D180582F00F0B88004F1420684F8427062
:103400003AE0A7F16303152BF6D801A151F823F098
:10341000693400087D340008F9330008F9330008E6
:10342000F9330008F93300087D340008F933000847
:10343000F9330008F9330008F93300087B35000838
:10344000A734000835350008F9330008F9330008BF
:103450009D350008F9330008A7340008F933000847
:10346000F93300083D35000833681A1D1B683260C7
:1034700004F1420684F8423001239CE0336820685E
:10348000191D3160060601D51D6803E04506FBD510
:10349000B3F90050002D03DA2D236D4284F8433038
:1034A00058480A2311E021683368080653F8045B82
:1034B00002D4490648BFADB26F2F5248336014BFE3
:1034C0000A230823002184F843106668A660002EB2
:1034D00005DB21682E4321F0040121604BD0164604
:1034E000B5FBF3F103FB1157C75D06F8017D2F46CD
:1034F000BB420D46F4D9082B0BD12368DF0708D552
:10350000236961689942DEBF302306F8013C06F169
:10351000FF36921B2261CDF800A04B4603AA21463C
:103520004046FFF7E7FE01304AD14FF0FF3004B0CC
:10353000BDE8F087236843F02003236032487827F2
:1035400084F84570236831681F0651F8045B02D483
:103550005F0648BFADB23160D90744BF43F02003D6
:1035600023601DB11023ADE72648E9E7236823F067
:1035700020032360F6E71646BDE7336825686169D6
:10358000181D30602E061B6801D5196002E0680620
:10359000FBD51980002323611646BCE733681A1D4A
:1035A00032601E68626800213046FCF7E9FD08B110
:1035B000801B606063682361002384F84330AAE7BE
:1035C0002369324649464046D0470130ADD0236892
:1035D0009B0713D4E068039B9842B8BF1846A6E740
:1035E0000123324649464046D04701309DD001353F
:1035F000E36803995B1AAB42F2DCEBE7002504F1C8
:103600001906F5E7253C0008363C0008B1F90C2006
:10361000F8B5160705460C4654D44B68002B02DC5F
:103620000B6C002B48DDE66A002E45D0002312F417
:1036300080522F68216A2B6030D0626DA3895907B0
:1036400005D56368D21A636B0BB1236CD21A0023C1
:10365000E66A216A2846B047431CA38906D1296837
:103660001D292BD8284ACA40D60727D500226260D8
:10367000D9042269226004D5421C01D12B6803B908
:103680006065616B2F60B9B104F14403994202D0C7
:103690002846FFF7F7FB002363630DE0012328466C
:1036A000B0470246501CC9D12B68002BC6D01D2B39
:1036B00001D0162B1DD12F60002021E043F04003E4
:1036C0001BB21AE00F69002FF6D093070E6808BFEF
:1036D0004B690F6018BF0023F61B8B60002EEBDDDB
:1036E000216AD4F828C033463A462846E0470028E5
:1036F00007DCB4F90C3043F04003A3814FF0FF30F6
:10370000F8BD0744361AE9E70100402038B50B69D7
:1037100005460C4613B90025284638BD18B1036A82
:103720000BB9FFF79FF9B4F90C30002BF3D0626EA0
:10373000D00704D4990502D4A06DFFF792FB284668
:103740002146FFF763FF636EDA070546E4D4A389D9
:103750009B05E1D4A06DFFF785FBDDE770B50C4656
:10376000B1F90E10002996B015461E460DDAA38950
:1037700013F0800F4FF0000114BF40234FF480631B
:10378000002031602B6016B070BD6A4600F07CF8F6
:103790000028ECDB019901F47041A1F50053594276
:1037A00059414FF48063EBE78B89F7B59D070646D7
:1037B0000C4607D504F147032360236101236361AD
:1037C00003B0F0BD01AB6A46FFF7C8FF009F054696
:1037D00039463046FFF7C2FB48B9B4F90C309A05B8
:1037E000EED423F0030343F00203A381E2E7A389AD
:1037F000206043F08003A381019BC4E904075BB10F
:10380000B4F90E10304600F051F828B1A38923F026
:10381000030343F00103A381A3891D43A581CFE7DF
:1038200070B50D461446064618B1036A0BB9FFF78A
:1038300019F9636ED80705D4A389990502D4A06D40
:10384000FFF70FFBA368013B002BA36005DAA26919
:10385000934212DBEBB20A2B0FD023685A1C226072
:103860001D70EDB2636EDA0705D4A3899B0502D4FF
:10387000A06DFFF7F7FA284670BD2946224630466C
:10388000FFF7E1F90546EDE738B5074D002304469B
:10389000084611462B60FDF7D6F9431C02D12B6870
:1038A00003B1236038BD00BFF002002038B5064DDB
:1038B0000023044608462B60FDF7CAF9431C02D1D9
:1038C0002B6803B1236038BDF002002038B5064DE7
:1038D0000023044608462B60FDF7BEF9431C02D1C5
:1038E0002B6803B1236038BDF0020020F8B500BF9B
:1038F000F8BC08BC9E467047F8B500BFF8BC08BCD1
:043900009E46704728
:103904000000000001000000020000004661696C34
:10391400656420546F20756E6C6F636B202074682F
:103924006520466C617368004661696C6564204873
:10393400414C5F464C41534845785F45726173651D
:103944000D004461746120466C61736820457261A6
:10395400736520446F6E650D004661696C65642073
:103964004461746120464C4153480D004661696CC2
:103974006564204461746120464C415348204D6184
:1039840078207472790D004461746120466C61730F
:1039940068204661696C65640D004661696C656404
:1039A40020546F206C6F636B202074686520466C14
:1039B4006173680077723A204661696C65642074AB
:1039C4006F20554E6C6F61636B2074686520666C64
:1039D40061736800436F6E66696775726174696FBD
:1039E4006E20466C61736820457261736520457270
:1039F400726F720D00436F6E6669677572617469E8
:103A04006F6E20466C617368205772697465204537
:103A140072726F720D0057723A204661696C656468
:103A240020746F20666C6173682074686520636F0E
:103A34006E6669670D0077723A204661696C656449
:103A440020746F206C6F61636B2074686520666CF2
:103A5400617368004C6F6164696E67204170706CBB
:103A640069636174696F6E0D00310066775F63721C
:103A740063203D20256C752066775F73697A652025
:103A84003D20256C752000566572696679696E67FC
:103A940020746865204170706C69636174696F6E2D
:103AA4002E2E2E003200536C6F6174464C415348E5
:103AB4005F4241534520435243203D20256C750A03
:103AC40000093C3C204C6F616420746865206E657D
:103AD40077206669726D7761726520746F206170FA
:103AE40070277320666C6173682061646472657307
:103AF40073203E3E0041707020466C6173682077ED
:103B040072697465204572726F720D004170702085
:103B1400466C61736820777269746520446F6E65C2
:103B24005C7200436F6E66696720466C617368203F
:103B34007772697465204572726F720D0043524347
:103B4400206D69736D6174636800330034004170E3
:103B5400706C464C4153485F4241534520435243A5
:103B6400203D20256C750A0035004552524F5221E4
:103B740021210D00496E76616C6964204170706C7E
:103B840069636174696F6E2E2048414C5421212170
:103B94000D00446F6E652121210D00537461727410
:103BA400696E6720426F6F744C6F6164657228257B
:103BB40064290D0A0052656164696E672074686542
:103BC400207265626F6F7420726561736F6E2E2E42
:103BD4002E0D00476F6E6E61204A756D7020746FF4
:103BE400204170706C69636174696F6E2025303890
:103BF400580D0A00476F6E6E61204A756D7020740F
:103C04006F204170706C69636174696F6E310D006F
:103C1400232D302B2000686C4C00656667454647B1
:103C24000030313233343536373839414243444534
:103C340046003031323334353637383961626364A3
:103C440065660000A0860100400D0300801A06008E
:103C540000350C0040420F0080841E0000093D0026
:103C640000127A000024F40000366E010048E801D6
:103C7400006CDC02000000000000000000000000F6
:103C84000000000000000000000000000000000030
:103C9400000000000100000002000000030000001A
:103CA4000400000001000000030000000500000003
:103CB4000100000001000000060000000A000000EE
:103CC40020000000020000000400000008000000C2
:103CD400100000004000000080000000000100000F
:103CE40000020000010002000400060008000A00AF
:103CF4000C001000200040008000000108040204B1
:0C3D04000801010101010103070100009A
:083D100070C4FF7F01000000F8
:043D18006501000839
:043D1C004101000859
:103D200000A800080200000000093D00010000009A
:103D3000100000000000000003000000B40100209B
:103D40002400002000000000B40100201C0200201C
:103D500084020020000000000000000000000000BD
:103D60000000000000000000000000000000000053
:103D70000000000000000000000000000000000043
:103D80000000000000000000000000000000000033
:0400000508000C9D46
:00000001FF
